:020000040800F2
:10000000700B002039020008B312000839120008F2
:10001000B112000863050008D917000800000000AD
:10002000000000000000000000000000F9140008BB
:100030006505000800000000B5120008FB14000868
:10004000530200085302000853020008530200083C
:10005000530200085302000853020008530200082C
:10006000530200085302000853020008530200081C
:10007000530200085302000853020008530200080C
:100080005302000853020008530200080000000059
:100090000000000000000000000000005302000803
:1000A00053020008530200085302000853020008DC
:1000B00053020008530200085302000853020008CC
:1000C00053020008530200085302000853020008BC
:1000D00053020008CD17000853020008000000007A
:1000E00053020008530200085302000800000000F9
:1000F00000000000000000000000000053020008A3
:1001000000000000530200085302000853020008D8
:1001100000000000000000000000000000000000DF
:10012000530200085302000853020008530200085B
:100130005302000800000000000000000000000062
:100140000000000000000000000000005302000852
:10015000530200085302000853020008530200082B
:1001600053020008530200080000000000000000D5
:10017000000000000000000000000000000000007F
:100180000000000053020008000000000000000012
:10019000530200085302000800F002F800F03CF897
:1001A0000AA090E8000C82448344AAF10107DA45D2
:1001B00001D100F031F8AFF2090EBAE80F0013F0E8
:1001C000010F18BFFB1A43F00103184794190000F0
:1001D000B4190000103A24BF78C878C1FAD8520781
:1001E00024BF30C830C144BF04680C6070470000B1
:1001F0000023002400250026103A28BF78C1FBD830
:10020000520728BF30C148BF0B6070471FB501F0CF
:100210008DFC1FBD10B510BD00F06AF91146FFF747
:10022000F5FF01F067FC00F088F903B4FFF7F2FF77
:1002300003BC00F08FF900000948804709480047D7
:10024000FEE7FEE7FEE7FEE7FEE7FEE7FEE7FEE786
:10025000FEE7FEE704480549054A064B70470000E3
:10026000911500089901000870050020700B00200E
:10027000700700207007002053EA020C00F069802C
:100280002DE9F04B4FF00006002B1FBFB3FA83F5AA
:1002900003FA05F424FA05F65E4012BF1643B2FADB
:1002A00082F502FA05F4C5F120051EBF22FA05FC0D
:1002B00044EA0C04203556EA044C4FEA144418BFB3
:1002C000641C4FF000084FF00009904271EB030CE2
:1002D00039D3002919BFB1FA81F701FA07F6B0FA4C
:1002E00080F700FA07F6C7F120071EBF20FA07FCC7
:1002F00046EA0C062037B6FBF4FCA7EB0507103FD7
:1003000007F01F0BCBF120060CFA0BFB2CFA06F6BC
:1003100044BFB3460026202FA4BF5E464FF0000B1B
:100320005BEA060C08BF4FF0010B19EB0B09ABFBA6
:10033000027C48EB0608C01B06FB02CC0BFB03CC7F
:1003400071EB0C01C1E70B46024641464846BDE849
:10035000F08B13B54FF000004FF00001AFF30080B9
:10036000BDE81C40704740EA0103024630B59B07D8
:1003700010D14FF0013400E008C208C91D1B9D4395
:1003800015EAC41FF8D013F0FF0102F8011B0DD0CD
:100390001B0AF8E711F8013B002B02F8013B05D0DE
:1003A00011F8013B002B02F8013BF3D130BD032AC9
:1003B00040F2308010F0030C00F0158011F8013B82
:1003C000BCF1020F624498BF11F801CB00F8013B69
:1003D00038BF11F8013BA2F1040298BF00F801CB2D
:1003E00038BF00F8013B11F0030300F04F80083ADA
:1003F000C0F0088051F8043B083A51F804CBA0E85B
:100400000810F5E7121D5CBF51F8043B40F8043BAF
:10041000AFF30080D20724BF11F8013B11F801CBE4
:1004200048BF11F8012B24BF00F8013B00F801CBB5
:1004300048BF00F8012B70474FF0000200B513468B
:1004400094469646203922BFA0E80C50A0E80C50F4
:10045000B1F12001BFF4F7AF090728BFA0E80C50A5
:1004600048BF0CC05DF804EB890028BF40F8042B9E
:1004700008BF704748BF20F8022B11F0804F18BF0B
:1004800000F8012B704770477047704710B5203A4D
:10049000C0F00B80B1E81850203AA0E81850B1E83D
:1004A0001850A0E81850BFF4F5AF5FEA027C24BFF3
:1004B000B1E81850A0E8185044BF18C918C0BDE8EA
:1004C00010405FEA827C24BF51F8043B40F8043BB3
:1004D00008BF7047D20728BF31F8023B48BF11F868
:1004E000012B28BF20F8023B48BF00F8012B7047C2
:1004F000754600F02BF8AE4605006946534620F0DD
:100500000700854618B020B5FFF7A4FEBDE82040DF
:100510004FF000064FF000074FF000084FF0000BBF
:1005200021F00701AC46ACE8C009ACE8C009ACE872
:10053000C009ACE8C0098D46704710B50446AFF35A
:1005400000802046BDE81040FFF76FBE00487047AE
:100550001005002001491820ABBEFEE7260002006E
:100560007047FEE7704772B6FEE72DE9F04104469A
:10057000876D00F057F9064694F8350000250228EB
:1005800006D08020606584F834500120BDE8F081F9
:100590002068016821F0160101602068416921F09E
:1005A00080014161206C08B9A06C20B1206801680D
:1005B00021F0080101602068016821F0010101605B
:1005C0000CE000F02FF9801B052807D9202060657A
:1005D000032084F8350084F83450D7E72068006899
:1005E000C007EED194F85C103F208840B86001202D
:1005F00084F8350084F834500020C7E790F83510AF
:10060000022903D08021416501207047052180F82F
:1006100035100068016821F0010101600020704779
:1006200070B5044600F0FEF80546601C02D0044890
:100630000078044400F0F6F8401BA042FAD370BDE5
:10064000000000202DE9F84FDFF8B8A100220124B6
:1006500003254FF00F090AF1040BAAF1040E00BFA5
:100660000B6804FA02F63340B34273D10F7907F0F6
:100670000307012F01D0022F16D187684FEA4208E5
:1006800005FA08FC27EA0C07D1F80CC00CFA08FCA4
:100690004CEA070CC0F808C04768B7430E79C6F3A8
:1006A000001696403E4346600E79F643B6070DD0DD
:1006B000C768560005FA06FC27EA0C07D1F808C0FF
:1006C0000CFA06FC4CEA070CC0F80CC00E7906F0D8
:1006D0000306022E10D1D60800EB8608D8F8206059
:1006E00057074FEAD76C09FA0CF7BE430F6907FAB0
:1006F0000CF73743C8F8207006684FEA420C05FA39
:100700000CF7BE430F7907F0030707FA0CF73743DE
:1007100007604E6816F4403F6DD03B4E376847F493
:1007200080473760366822F0030706F4804600965B
:10073000364E07EB060CDCF8086897073F0F09FAFE
:1007400007F826EA0806DFF8C880404503D14FF0D5
:1007500000081EE04FE0DFF8BC80404502D14FF0BA
:10076000010816E0DFF8B080404502D14FF00208E2
:100770000FE0DFF8A880404502D14FF0030808E001
:10078000DFF89C80404502D14FF0040801E04FF0B3
:10079000070808FA07F848EA0608CCF80888DAF8E3
:1007A00000605746D1F804C09E435FEACC2C00D5C8
:1007B0001E433E60DBF800605F46D1F804C09E43F4
:1007C0005FEA8C2C00D51E433E60DEF80060774661
:1007D000D1F804C09E435FEA8C3C00D51E433E60C6
:1007E000084F083F3E68D1F804C09E435FEACC3C06
:1007F00000D51E433E60521C102AFFF431AFBDE805
:10080000F88F0000083C01404438024000300140AD
:10081000000002400004024000080240000C0240B8
:10082000001002400148806870470000000000206E
:1008300002488168027811448160704700000020FE
:100840000B4810B5016841F400710160016841F482
:1008500080610160016841F480710160032000F053
:100860006FF80F2000F006F800F024F8002010BD0B
:10087000003C024070B50D4D04464FF47A71287863
:10088000B1FBF0F00A490968B1FBF0F000F00CFB95
:1008900048B9102C07D200222146501E00F030F833
:1008A00000206C6070BD012070BD000000000020C1
:1008B0000C0000200A4808B5016841F4804101603D
:1008C000006800F4804000900548001F016841F076
:1008D00080510160006800F08050009008BD000069
:1008E00044380240002809DB00F01F02012191403A
:1008F0004009800000F1E020C0F8001170470000BE
:10090000F0B40E4B1B680C46C3F30223C3F107057A
:10091000042D00D90425191D072901D2002300E068
:10092000DB1E012606FA05F1491E214099409E4032
:10093000761E16403143F0BC01F0CBB80CED00E060
:10094000064900F0070208684FF6FF03184040EA26
:100950000220034A10430860704700000CED00E0DD
:100960000000FA052DE9F0470E46050065D0DFF8D6
:100970001481D8F80000F7B200F00700B04207D2A7
:1009800088F80070D8F8000000F00700B04254D199
:1009900028683D4C810712D5400703D5206840F4F4
:1009A000E05020602878000703D5206840F46040BC
:1009B00020602068A96820F0F000084320602878B3
:1009C000C0072DD0304968680839012812D00228A4
:1009D00013D0032811D00968890700292DDA21686E
:1009E00021F0030101432160FFF71CFF814641F222
:1009F000883A0EE009688903EFE709688901ECE7A6
:100A0000FFF710FFA0EB0901514502D90320BDE813
:100A1000F0872068696800F00C00B0EB810FEFD11F
:100A2000D8F80010404601F00701B14207D907701D
:100A3000006800F00700B04201D00120E7E7287805
:100A4000400705D52068E96820F4E050084320609D
:100A50002878000706D52068296920F4604040EA1C
:100A6000C100206000F038F82168084AC1F3031182
:100A7000515CC8400649086006480068FFF7FAFE66
:100A80000020C4E7003C024008380240361B000842
:100A90000C00002004000020044805490068096893
:100AA000044AC1F38221515CC84070470C00002009
:100AB00008380240461B00080448054900680968D8
:100AC000044AC1F34231515CC84070470C00002019
:100AD00008380240461B0008154810B5006810F0A1
:100AE0000C02144813D01449042A0FD0082A0ED13E
:100AF0000F4C241F2268236802F03F025B0207D5D7
:100B00002068C0F38810A0FB010106E0084610BD74
:100B10002168C1F38811A1FB00010023FFF7ACFBA2
:100B20002168C1F30141491C4900B0FBF1F010BD3F
:100B3000083802400024F40040787D012DE9F84F88
:100B400004006ED02078DFF84C93C007A9F10405AB
:100B50004AD009F104000168C1F38101012908D0DC
:100B60000068C0F3810002280AD1D9F800004002D1
:100B700006D52868800337D560680028E1D033E0C7
:100B80006068B0F5803F10D0B0F5A02F286810D075
:100B900020F480302860286820F480202860606875
:100BA000A8B1FFF73FFE06460DE0286840F480300C
:100BB000F4E740F480202860F7E700BFFFF732FE3B
:100BC000801B642873D828688003F7D50CE0FFF7F2
:100BD00029FE064605E000BFFFF724FE801B6428BF
:100BE000F0D828688003F7D42078DFF8AC8280073B
:100BF0004FF0000A3ED5A748001D016811F00C0F08
:100C000008D00068C0F3810002280BD1D9F8000099
:100C1000400207D42868800716D5E068012800D173
:100C200012E033E1E068B8B10120C8F80000FFF736
:100C3000F9FD064605E000BFFFF7F4FD801B022822
:100C4000C0D828688007F7D52868216920F0F80007
:100C500040EAC10028600DE0C8F800A0FFF7E2FDFF
:100C6000064604E0FFF7DEFD801B02281FD8286837
:100C70008007F7D42078000722D5864F874861691E
:100C8000703771B101210160FFF7CCFD064604E029
:100C9000FFF7C8FD801B022809D838688007F7D500
:100CA0000EE0C0F800A0FFF7BDFD064605E082E0BB
:100CB000FFF7B8FD801B02287DD838688007F7D47D
:100CC0002078400768D5DFF8CCB100270BF13C0B4A
:100CD000DBF80000C0000BD4DBF8001041F08051BD
:100CE000CBF80010DBF80000012700F080500090E6
:100CF0006B4E3068C00510D4306840F480703060AE
:100D0000FFF790FD009005E0FFF78CFD0099401A79
:100D1000022850D83068C005F6D55E4EA0686C3603
:100D200001280FD00528306810D020F00100306075
:100D3000306820F004003060A068B8B1FFF772FDA1
:100D400000900FE0306840F00100F4E740F004004C
:100D50003060F7E7FFF766FD0099411A41F28830ED
:100D6000814266D830688007F4D50EE0FFF75AFD5F
:100D7000009007E0FFF756FD0099411A41F28830D4
:100D8000814256D830688007F4D42FB1DBF80010C8
:100D900021F08051CBF80010A069C8B33D49091D6E
:100DA0000968C1F3810102294AD00228504607D0C0
:100DB000C8F8600000E03CE0FFF734FD04463BE08B
:100DC0004746C8F86000FFF72DFD064605E000BF66
:100DD000FFF728FD801B02282BD828688001F7D454
:100DE000D4E907010843A16A2E4A490802EB0141F0
:100DF000626A41EA8211084394F82C1040EA0161CA
:100E0000C9F8001001203866FFF70CFD044606E023
:100E10003EE000BFFFF706FD001B022809D8286846
:100E20008001F7D534E000BFFFF7FCFC001B02286F
:100E300002D90320BDE8F88F28688001F4D427E0A8
:100E40000128F7D0D9F80000E26900F4800191424E
:100E50001CD1226A00F03F01914217D147F6C071C0
:100E6000626A0140B1EB821F10D1A26A4FF0FF33DA
:100E700000F4403103EB5202B1EB024F06D194F87B
:100E80002C1000F07060B0EB016F01D00120D1E7B1
:100E90000020CFE70438024000004742800E47425E
:100EA000007000400000FFFF10B5401EB0F1807FD1
:100EB00001D3012010BD4FF0E02460610F216017C5
:100EC00000F007FE0020A06107202061002010BD77
:100ED00070477047F8B5016804460868CA684B69EE
:100EE00010F00F0F4FF0000559D003F0010602F487
:100EF0009077374365D0C10705D0D10503D5616C24
:100F000041F001016164410705D5D90703D0616C47
:100F100041F002016164810705D5D90703D0616CF6
:100F200041F004016164010707D502F0200131435B
:100F300003D0616C41F008016164616C00293AD012
:100F4000800604D5900602D5204600F057FB2068A5
:100F50004069616CC0F38010090700D460B320467B
:100F600000F025FB20684069400621D52068143038
:100F700050E8001F21F0400140E80012002AF5D19E
:100F8000E06BA8B172490165E06BFFF737FB002801
:100F900011D0E06B016D01B0BDE8F0400847830659
:100FA0000FD593060DD52046BDE8F84000F026BBCE
:100FB0002046FFF78EFFF8BD2046FFF78AFF6564E5
:100FC000F8BD266B2023012E7ED1C6067CD5D60621
:100FD0007AD508684868009048694FF002064006D4
:100FE0004DD5E26B106840684FF480770004000C28
:100FF0003AD0A18D814237D9E085D069B8422DD051
:1010000020680C3050E8001F21F4807140E8001285
:10101000002AF5D12068143050E8001F21F00101AA
:1010200040E80012002AF5D12068143050E8001F73
:1010300021F0400140E80012002AF5D184F8423046
:10104000256320680C3050E8001F21F0100140E8B3
:101050000012002AF5D1E06BFFF787FA6663A08DD6
:10106000E18D401A81B206E0A18D8142A8D1D069FC
:10107000B842A5D166632046FFF72AFFF8BDA08DD0
:10108000E18D401A81B2E08D0028F7D00029F5D01B
:1010900020680C3050E8002F22F4907240E80027BE
:1010A000002FF5D12068143050E8002F22F0010203
:1010B00040E80027002FF5D184F8423025632068EE
:1010C0000C3050E8002F00E006E022F0100240E86B
:1010D0000023002BF3D1CDE705062BD5150629D526
:1010E00094F841002128C9D1A068B0F5805F01D1F2
:1010F0002069B0B1206A411C2162216800784860F3
:10110000E08C401E0004000CE084B7D12068C16868
:1011100021F08001C1602068C16841F04001C160D8
:10112000F8BD206A0088C0F308004860206A801C6F
:101130002062E5E74006F3D55006F1D5CA6820469F
:1011400022F04002CA6084F8413000F074F8F8BD23
:10115000A115000870B5040004D094F841000025E2
:1011600010B106E0012070BD84F84050204600F028
:1011700023F8242084F841002068C16821F400513C
:10118000C160204600F09CFA2068016921F490417A
:1011900001612068416921F02A0141612068C1682C
:1011A00041F40051C1606564202084F8410084F856
:1011B00042006563002070BD10B586B0044614215E
:1011C0006846FFF739F918492068884229D117483D
:1011D0000021026842F010020260006800F0100076
:1011E000059012481438026842F00102026000685B
:1011F00000F0010005904FF4C06000900220CDE99E
:101200000101032003900720049069460848FFF776
:1012100019FA002211462520FFF772FB2520FFF75F
:1012200061FB06B010BD00000010014044380240D0
:101230000000024070477047FEE700000D4808B507
:10124000016841F004010160016801F004010091AE
:10125000016841F080010160016801F080010091A6
:10126000016841F001010160006800F00100009098
:1012700008BD0000303802400C4810B50A49016032
:101280004FF4E1314160002181600C22C160C0E96E
:1012900004128161C161FFF75DFF002803D0BDE842
:1012A0001040FFF760B910BD001001401000002091
:1012B000FEE7FEE7704700002DE9F04107460B48C6
:1012C00015460E46007808B900F088FAEFF311844D
:1012D000202080F311882A463146384600F008F86D
:1012E000E1B281F31188BDE8F081000058000020D0
:1012F00070B50E46144900EB400001EBC0051446E2
:10130000E86A183520B101280FD0022805D113E072
:10131000284600F097FAA04201D2002411E02246AC
:101320003146284600F0B4FB0BE0284600F08AFA6C
:10133000A042F4D20446F2E73146284600F07BFB97
:101340000446204670BD0000580000200FB408B5C8
:1013500004A900916A46039900F003F801B05DF812
:1013600014FB2DE9F04198B0064607A802904020F2
:101370000025CDE90305CDE9055690460C4614F845
:10138000011B002973D0252908D002A800F034FBE6
:1013900005980028F3DA18B0BDE8F081002001219B
:1013A0002278232A1ED02B2A19D02D2A02D0302AA7
:1013B00008D102E040F0010001E040F00200641CAE
:1013C0000029EDD100222178A1F130030A2B0CD2A3
:1013D00002EB820201EB4202303A641CF3E740F078
:1013E0000400ECE740F00800E9E70023CFB22E2F1D
:1013F0000BD114F8011FA1F130070A2F05D203EB1E
:10140000830301EB4303303BF3E76C290DD06829DC
:101410000BD0702954D00BDC252916D0582931D097
:1014200063290CD0642913D114E014F8011FECE7F0
:10143000732934D075291BD0782909D122E0D8F836
:101440000000011DC8F80010017802A800F0D4FACD
:10145000641C9DE7D8F800100F1DC8F800700968DB
:10146000CDE900200A2202A800F0F8F9F0E733E005
:10147000D8F800100F1DC8F800700968CDE90020E9
:101480000A2208E0D8F800100F1DC8F8007009689B
:10149000CDE90020102202A800F044FAD8E7D8F8DD
:1014A0000000011DC8F80010076817F8011B00298B
:1014B000CED002A800F0A0FA05980028F5DAC7E718
:1014C000D8F80000011DC8F8001001680820CDE917
:1014D000000503461022DEE7059800287FF75BAF82
:1014E000049820B1024607A93046FFF7E5FEDDE982
:1014F0000410084405904EE77047FFF799B90000C3
:1015000030B593B030216846FEF796FF14210CA841
:10151000FEF792FF1C480024016841F080510160F1
:10152000006800F0805011901848016841F4404173
:1015300001600068022500F44040119001200390F2
:1015400010200490009506950820CDE907406420FE
:10155000CDE9090504200B906846FFF7EFFA08B1C2
:1015600072B6FEE70F20CDE90C054FF48050CDE9AF
:101570000E4003210CA81094FFF7F4F9002801D0C5
:1015800072B6FEE713B030BD403802400070004034
:101590000248016841F470010160704788ED00E085
:1015A00010B5806B0021C185FFF793FC10BD016869
:1015B0000C3151E8002F22F4907241E80023002BF7
:1015C000F5D10168143151E8002F22F0010241E801
:1015D0000023002BF5D1016B012909D101680C31E1
:1015E00051E8002F22F0100241E80023002BF5D132
:1015F000202180F8421000210163704708B590F85F
:101600004210222901D0022008BD82684FF4805385
:101610009A4201D1016921B1816A9A421BD04AB133
:101620000AE00268816A5268C2F308020A80816A8D
:10163000891C08E0026972B10268526802F07F02F8
:101640000A70816A491C8162C18D491E0904090C16
:10165000C18503D01BE002685268F1E70168CA68DF
:1016600022F02002CA600168CA6822F48072CA604F
:1016700001684A6922F001024A61202180F8421083
:1016800000214163026B012A03D0FFF7D3FD002044
:1016900008BD016301680C3151E8002F22F01002EF
:1016A00041E80023002BF5D101680A68D20602D573
:1016B0000A6849680091818DFFF70AFCE7E700009E
:1016C00070B5044600680169E26821F44051114395
:1016D00001612169A068E269084361691143084317
:1016E0002168CA6849F20C639A430243CA602068C1
:1016F0004169A26921F44071114341613149206877
:10170000884202D03049884202D1FFF7D5F901E082
:10171000FFF7C2F9E2690023192164253226B2F5E8
:10172000004F626828D0A0FB0101930F9200FEF7E2
:10173000A3FD0146B0FBF5F06FF01802504301EB3A
:10174000800006EB0010B0FBF5F000F0F002B1FBFA
:10175000F5F002EB0012B1FBF5F06FF018035843FF
:1017600001EB800006EB0010B0FBF5F000F00F007D
:1017700021681044886070BDA0FB010192185B4194
:10178000FEF77AFD0146B0FBF5F00201B1FBF5F082
:101790006FF01803584301EB800006EBC000B0FB6C
:1017A000F5F000F0F80002EB4002B1FBF5F0584311
:1017B00001EB800006EBC000B0FBF5F000F0070085
:1017C000D6E7000000100140001401400148FFF777
:1017D00081BB000010000020FEE7000010B5124C95
:1017E00003202061606111A0A06104F1A800E06104
:1017F0004FF4806020620020A0626062E0620BA172
:10180000216604F5956161661021A1662067E06696
:10181000606709A1E01DFEF7A6FD08A12046FEF7BE
:10182000A2FD2020A07110BD580000205465726DEB
:10183000696E616C000000005254540053454747E4
:10184000455200000269C1688A4203D88068401A84
:10185000104400E0501A401E704700002DE9FC5F64
:101860000E008146DDE90C47C6F10000984693461C
:10187000824600D40846012503E000BF90FBFBF040
:101880006D1C5845FADAA84500D9454624B1002E0A
:1018900001DB780700D5641EB80702D5B8F1000F48
:1018A0000FD0F8070DD164B1A5420AD220214846D5
:1018B000641E00F0A1F8D9F80C000028F3DABDE8A6
:1018C000FC9FD9F80C000028F9DB002E02DA5646FE
:1018D0002D2102E0780707D52B21484600F08CF82F
:1018E000D9F80C000028EADB07F0030002280FD12A
:1018F000B8F1000F0CD15CB1A54209D230214846A5
:10190000641E00F079F8D9F80C000028F3DAD6E765
:10191000CDE9004743465A463146484600F002F8B2
:10192000CDE700002DE9F84F8246DDE90A4B01269C
:10193000984691460D460846374602E0B0FBF9F05E
:101940007F1C4845FAD2B84500D947465FEACB70BC
:1019500017D1B4B15FEA8B7002D5B8F1000F02D095
:10196000202000900BE03020FBE75046641E0099D9
:1019700000F042F8DAF80C00002838DB0CB1A7427E
:10198000F3D3DAF80C00002831DB00BFB8F1010F07
:1019900002D9A8F1010803E0B5FBF6F0484502D3EF
:1019A00006FB09F6F2E7DFF84C8000BFB5FBF6F066
:1019B00000FB165518F80010504600F01DF8DAF834
:1019C0000C00002803DBB6FBF9F6002EEED15FEA2F
:1019D000CB700CD0002C0AD0A74208D22021504650
:1019E000641E00F009F8DAF80C000028F2DABDE80D
:1019F000F88F00004E1B000810B50446D4E90130F2
:101A0000421C934205D323681954A260E068401C2D
:101A1000E060D4E90102824209D121682069FFF720
:101A20004BFCA168884203D04FF0FF30E06010BD4E
:101A30000020A06010BD2DE9F047C4681746894614
:101A400006464FF000083069A04201D9051B02E0AC
:101A5000B168201A0D1AB0686D1E001BA84200D88C
:101A60000546BD4200D33D4670682A46204449469B
:101A7000FEF79DFCB0687F1B2C44A844A944A042FB
:101A800000D10024F460002FDDD14046BDE8F0878E
:101A90002DE9F04104468846D4E90207C51BE168F8
:101AA000606816460844B54206D94146FEF77FFCF9
:101AB000B819E060BDE8F0812A464146FEF777FCA0
:101AC000761B08EB050132466068FEF770FCE660A5
:101AD000F0E70907090E002804DB00F1E02080F898
:101AE0000014704700F00F0000F1E02080F8141D92
:101AF00070470000FEF7A4FEFFF702FDFFF79EFB14
:101B0000FFF7BAFB4FF47A7403A10020FFF71EFC25
:101B10002046FEF785FDF7E748656C6C6F2053455E
:101B200047474552205254540D0A00004FF0407070
:101B3000E1EE100A70470000000000000000010202
:101B40000304060708090000000001020304303105
:101B50003233343536373839414243444546000044
:101B6000801B00080000002010000000D4010008C5
:101B7000901B000810000020600B0000F00100081E
:101B80000100000010000000000000000024F4002C
:040000050800019955
:00000001FF
