:020000040800F2
:10000000205A0020710200089B190008DF18000820
:10001000991900087F080008111E00080000000060
:10002000000000000000000000000000B101000816
:1000300081080008000000000D020008391A0008BD
:100040008B0200088B0200088B0200088B0200085C
:100050008B0200088B0200088B0200088B0200084C
:100060008B0200088B0200088B0200088B0200083C
:100070008B0200088B0200088B0200088B0200082C
:100080008B0200088B0200088B02000800000000B1
:100090000000000000000000000000008B020008CB
:1000A0008B020008F51A00088B0200088B0200087A
:1000B0008B0200088B0200088B0200088B020008EC
:1000C0008B0200088B0200088B0200088B020008DC
:1000D0008B020008051E00088B02000800000000CB
:1000E0008B0200088B0200088B0200080000000051
:1000F0000000000000000000000000008B0200086B
:10010000000000008B0200088B0200088B02000830
:1001100000000000000000000000000000000000DF
:100120008B0200088B0200088B0200088B0200087B
:100130008B0200080000000000000000000000002A
:100140000000000000000000000000008B0200081A
:100150008B0200088B0200088B0200088B0200084B
:100160008B0200088B020008000000000000000065
:10017000000000000000000000000000000000007F
:10018000000000008B0200080000000000000000DA
:100190008B0200088B020008DFF810D000F0EEFAA6
:1001A00000480047F3320008AFF30080205A0020D7
:1001B0002C4B19680868B0E8F04F80F30988BFF34A
:1001C0006F8F4FF0000080F311887047000000002F
:1001D00008480068006880F308884FF0000080F34A
:1001E000148862B661B6BFF34F8FBFF36F8F00DF25
:1001F00000BF00BF08ED00E0DFF80C00016841F42B
:1002000070010160704700BF88ED00E0EFF30980E6
:10021000BFF36F8F134B1A681EF0100F08BF20ED4D
:10022000108A20E9F04F106009B44FF0500080F3BD
:100230001188BFF34F8FBFF36F8F04F0F5FA4FF0C3
:10024000000080F3118809BC19680868B0E8F04F15
:100250001EF0100F08BFB0EC108A80F30988BFF3BE
:100260006F8F70471C000020EFF30580704700007F
:100270000648804706480047FEE7FEE7FEE7FEE740
:10028000FEE7FEE7FEE7FEE7FEE7FEE7E51A000809
:10029000990100082DE9F05F0546002092469B4633
:1002A00088460646814640241BE02846414647468C
:1002B000224600F09AF853465A46C01A914110D38C
:1002C00011461846224600F081F82D1A67EB010806
:1002D0004F4622460120002100F078F817EB000974
:1002E0004E41201EA4F10104DFDC484631462A4677
:1002F0004346BDE8F09F40EA01039B0703D009E0B5
:1003000008C9121F08C0042AFAD203E011F8013B01
:1003100000F8013B521EF9D27047D2B201E000F85A
:10032000012B491EFBD270470022F6E710B5134699
:100330000A4604461946FFF7F0FF204610BD30B5C7
:1003400005462A460B4612F8010B13F8014B08B17B
:10035000A042F8D01CB1002802D06D1CF1E728465D
:1003600030BD421C10F8011B0029FBD1801A7047D8
:10037000034611F8012B00F8012B002AF9D1184689
:10038000704730B505460020034600E05B1C9342F1
:1003900005D2EC5CC85C201A01D1002CF6D130BD2E
:1003A00030B50B46014600202022012409E021FA45
:1003B00002F59D4205D303FA02F5491B04FA02F542
:1003C0002844151EA2F10102F1DC30BD202A04DB15
:1003D000203A00FA02F1002070479140C2F1200358
:1003E00020FA03F3194390407047202A04DB203A97
:1003F00021FA02F00021704721FA02F3D040C2F145
:10040000200291400843194670472DE9FE4F80466F
:1004100081EA0300C00F0C46009021F0004123F058
:100420000045B8EB0200A94105D24046214690465E
:100430001C460B46024623F00040104347D0270DD0
:10044000C7F30A00C3F30A510290401A01904028F2
:100450006BDAC3F3130040F4801B0098924620B17E
:100460000023D2EB030A63EB0B0B01985946C0F152
:1004700040025046FFF7AAFF06460D465046594631
:10048000019A00F08DF910EB08006141002487EA21
:10049000115284EAE7731A4340D0009A62B3019A7A
:1004A000012A4FEA075215DC001B61EB02014FF0F5
:1004B000004202EA0752CDE90042001C41F58011DA
:1004C00032462B4600F08DF903B0BDE8F08F404670
:1004D0002146F9E7001B61EB0201001C41F5801386
:1004E00000185B412018A2F5001747EB030140EA12
:1004F000D570B6196D4111E06D084FEA360645EA30
:10050000C0754FEA0752001B61EB0201001C41F568
:10051000801149084FEA30000019514132462B46FC
:1005200003B0BDE8F04F00F04DB900980122400043
:100530000023D0EB020263EBE073009821464FEA00
:10054000E074B8EB000061EB0401E9E783F00043DD
:100550005BE781F0004158E72DE9FE4F81EA030493
:1005600004F0004421F0004100944FF0000B23F010
:10057000004350EA01045ED052EA03045BD0C3F3A7
:100580000A54C1F30A552C44A4F2F3340194A0FB9D
:100590000254C1F3130141F48011C3F3130343F474
:1005A000801301FB024400FB034E840A970A44EACD
:1005B000815447EA8357A4FB076802958D0A05FB1F
:1005C00007854FEA932C04FB0C542705029D4FEA44
:1005D000065847EA1637B5EB08056EEB070C870E91
:1005E000920E47EA811742EA8312A7FB0201B6EB9B
:1005F0000B0164EB00042B0D43EA0C335E1844EB53
:100600001C50DA465146E7FB0201C5F313044FEADA
:100610000B3343EA14534FEA0432019C43EA0603C6
:10062000A4F10C040294009CCDE900B400F0D9F8C8
:1006300003B0BDE8F08F00200146F9E72DE9F04D49
:1006400081EA030404F0004B21F0004514464FF00A
:10065000000A23F0004150EA050220D054EA0102CA
:100660001DD0C5F30A570246C5F31303C1F31300A7
:10067000C1F30A5640F4801543F48013A7EB060833
:10068000101BD64608F2FD3873EB050002D308F1C3
:10069000010801E092185B41B8F1000F03DA002075
:1006A0000146BDE8F08D00204FF4801106468446D7
:1006B0000EE0171B73EB050705D3121B63EB050355
:1006C00006434CEA010C49084FEA300092185B419E
:1006D00050EA0107EDD152EA030012D082EA040089
:1006E00083EA0501084305D0101BAB4106D2012265
:1006F000002306E000224FF0004302E06FF0010209
:1007000053101AEB06004CEB085110EB0A0041EBBA
:100710000B01BDE8F04D00F055B8C1F30A52C1F32A
:10072000130140F2FF3341F480119A4202DA0020B3
:100730000146704740F233439A42A2F2334202DC50
:100740005242FFF752BEFFF741BE000030B5041E13
:1007500071F1000404DB4FF00044404264EB0101FE
:10076000141E73F1000405DB1C464FF00043524297
:1007700063EB0403994208BF904230BD064C074D1D
:1007800006E0E06840F0010394E807009847103461
:10079000AC42F6D3FFF704FD205500084055000891
:1007A000202A06DBCB17203A41FA02F043EAE07335
:1007B00006E041FA02F3D040C2F120029140084322
:1007C0001946704710B5141E73F1000408DA401C76
:1007D00041F1000192185B411A4301D120F0010060
:1007E00010BD2DE9F04D92469B4611B1B1FA81F250
:1007F00002E0B0FA80F220329046FFF7E7FD0446AF
:100800000F4640EA0A0041EA0B0153465A460843A4
:1008100013D0114653EA010019D0C8F140025046E6
:10082000FFF7E3FD05460E46504659464246FFF7A0
:10083000CDFD084305D0012004E020463946BDE83F
:10084000F08D0020054346EAE0762C4337430A98B2
:100850006305E40AA0EB08000022FD0A44EA4754BD
:100860000A3002D500200146E9E701051019694167
:10087000DDE9084500196941BDE8F04DA2E7FEE752
:10088000704772B6FEE72DE9F0410446876D00F02F
:1008900045F9064694F835000025022806D0802048
:1008A000606584F834500120BDE8F081206801685B
:1008B00021F0160101602068416921F08001416149
:1008C000206C08B9A06C20B12068016821F00801F3
:1008D00001602068016821F0010101600CE000F076
:1008E0001DF9801B052807D920206065032084F8A6
:1008F000350084F83450D7E720680068C007EED18F
:1009000094F85C103F208840B860012084F83500DE
:1009100084F834500020C7E790F83510022903D03E
:100920008021416501207047052180F8351000685D
:10093000016821F001010160002070472DE9F84FA6
:10094000DFF8B8A10022012403254FF00F090AF1B6
:10095000040BAAF1040E00BF0B6804FA02F6334040
:10096000B34273D10F7907F00307012F01D0022F93
:1009700016D187684FEA420805FA08FC27EA0C07F7
:10098000D1F80CC00CFA08FC4CEA070CC0F808C0FF
:100990004768B7430E79C6F3001696403E4346605B
:1009A0000E79F643B6070DD0C768560005FA06FC67
:1009B00027EA0C07D1F808C00CFA06FC4CEA070C31
:1009C000C0F80CC00E7906F00306022E10D1D6082E
:1009D00000EB8608D8F8206057074FEAD76C09FA71
:1009E0000CF7BE430F6907FA0CF73743C8F82070BD
:1009F00006684FEA420C05FA0CF7BE430F7907F080
:100A0000030707FA0CF7374307604E6816F4403FB8
:100A10006DD03B4E376847F480473760366822F028
:100A2000030706F480460096364E07EB060CDCF80A
:100A3000086897073F0F09FA07F826EA0806DFF863
:100A4000C880404503D14FF000081EE04FE0DFF8BA
:100A5000BC80404502D14FF0010816E0DFF8B080BD
:100A6000404502D14FF002080FE0DFF8A880404572
:100A700002D14FF0030808E0DFF89C80404502D126
:100A80004FF0040801E04FF0070808FA07F848EAB9
:100A90000608CCF80888DAF800605746D1F804C098
:100AA0009E435FEACC2C00D51E433E60DBF800601D
:100AB0005F46D1F804C09E435FEA8C2C00D51E43EC
:100AC0003E60DEF800607746D1F804C09E435FEADE
:100AD0008C3C00D51E433E60084F083F3E68D1F86D
:100AE00004C09E435FEACC3C00D51E433E60521CCE
:100AF000102AFFF431AFBDE8F88F0000083C014038
:100B0000443802400030014000000240000402402E
:100B100000080240000C02400010024001488068BA
:100B2000704700000C0000200248816802781144E0
:100B3000816070470C0000200B4810B5016841F43B
:100B400000710160016841F480610160016841F455
:100B500080710160032000F099F80F2000F006F882
:100B600000F04AF8002010BD003C024030B50546B8
:100B70001C4887B00024016841F001010160006851
:100B800006A900F00100009001A800F02BF900F088
:100B900059F91549154AB0FBF1F11548491E026093
:100BA00040F2E732C0E90324C0E90114846100F097
:100BB00043FB040012D10E4800F06CFB04000DD181
:100BC000192000F035F8102D07D2002229461920EF
:100BD00000F03CF80748056000E0012407B020461B
:100BE00030BD00004438024040420F000000014088
:100BF00040010020100000200C4882B0016841F440
:100C000080410160006800F4804000900748001FA8
:100C1000016841F0805101600068002200F08050BE
:100C200000900F21901E02B000F010B8443802402E
:100C3000002809DB00F01F020121914040098000DB
:100C400000F1E020C0F8001170470000F0B40E4B36
:100C50001B680C46C3F30223C3F10705042D00D91A
:100C60000425191D072901D2002300E0DB1E0126FF
:100C700006FA05F1491E214099409E40761E164015
:100C80003143F0BC01F088B90CED00E0064900F0FA
:100C9000070208684FF6FF03184040EA0220034AA3
:100CA00010430860704700000CED00E00000FA05FA
:100CB0002DE9F0470E46050065D0DFF81481D8F81D
:100CC0000000F7B200F00700B04207D288F80070C9
:100CD000D8F8000000F00700B04254D128683D4C1D
:100CE000810712D5400703D5206840F4E05020600A
:100CF0002878000703D5206840F460402060206811
:100D0000A96820F0F000084320602878C0072DD0A3
:100D1000304968680839012812D0022813D0032806
:100D200011D00968890700292DDA216821F0030113
:100D300001432160FFF7F2FE814641F2883A0EE05E
:100D400009688903EFE709688901ECE7FFF7E6FE28
:100D5000A0EB0901514502D90320BDE8F0872068C6
:100D6000696800F00C00B0EB810FEFD1D8F80010EB
:100D7000404601F00701B14207D90770006800F052
:100D80000700B04201D00120E7E72878400705D5E9
:100D90002068E96820F4E0500843206028780007C4
:100DA00006D52068296920F4604040EAC10020602F
:100DB00000F058F82168084AC1F30311515CC8409B
:100DC0000649086006480068FFF7D0FE0020C4E727
:100DD000003C024008380240305300081800002050
:100DE000100000200F2202600C4A136803F0030376
:100DF0004360136803F0F0038360136803F4E05367
:100E0000C36012684FF4E05303EAD202026104485F
:100E1000006800F0070008607047000008380240D2
:100E2000003C02400448054900680968044AC1F3CF
:100E30008221515CC84070471800002008380240E9
:100E4000405300080448054900680968044AC1F392
:100E50004231515CC84070471800002008380240F9
:100E600040530008154810B5006810F00C021448F3
:100E700013D01449042A0FD0082A0ED10F4C241F76
:100E80002268236802F03F025B0207D52068C0F3A6
:100E90008810A0FB010106E0084610BD2168C1F3DF
:100EA0008811A1FB00010023FFF7F4F92168C1F3C9
:100EB0000141491C4900B0FBF1F010BD0838024067
:100EC0000024F40040787D012DE9F84F04006ED035
:100ED0002078DFF84C93C007A9F104054AD009F146
:100EE00004000168C1F38101012908D00068C0F342
:100EF000810002280AD1D9F80000400206D52868EE
:100F0000800337D560680028E1D033E06068B0F531
:100F1000803F10D0B0F5A02F286810D020F480308A
:100F20002860286820F4802028606068A8B1FFF756
:100F3000F5FD06460DE0286840F48030F4E740F403
:100F400080202860F7E700BFFFF7E8FD801B6428DA
:100F500073D828688003F7D50CE0FFF7DFFD06465D
:100F600005E000BFFFF7DAFD801B6428F0D8286891
:100F70008003F7D42078DFF8AC8280074FF0000AB6
:100F80003ED5A748001D016811F00C0F08D000687D
:100F9000C0F3810002280BD1D9F80000400207D429
:100FA0002868800716D5E068012800D112E033E1F7
:100FB000E068B8B10120C8F80000FFF7AFFD0646B1
:100FC00005E000BFFFF7AAFD801B0228C0D82868F3
:100FD0008007F7D52868216920F0F80040EAC100B1
:100FE00028600DE0C8F800A0FFF798FD064604E071
:100FF000FFF794FD801B02281FD828688007F7D4CC
:101000002078000722D5864F87486169703771B113
:1010100001210160FFF782FD064604E0FFF77EFD37
:10102000801B022809D838688007F7D50EE0C0F881
:1010300000A0FFF773FD064605E082E0FFF76EFDB6
:10104000801B02287DD838688007F7D420784007B5
:1010500068D5DFF8CCB100270BF13C0BDBF80000C2
:10106000C0000BD4DBF8001041F08051CBF8001029
:10107000DBF80000012700F0805000906B4E3068D4
:10108000C00510D4306840F480703060FFF746FD32
:10109000009005E0FFF742FD0099401A022850D861
:1010A0003068C005F6D55E4EA0686C3601280FD0BA
:1010B0000528306810D020F001003060306820F042
:1010C00004003060A068B8B1FFF728FD00900FE081
:1010D000306840F00100F4E740F004003060F7E7CA
:1010E000FFF71CFD0099411A41F28830814266D811
:1010F00030688007F4D50EE0FFF710FD009007E0A0
:10110000FFF70CFD0099411A41F28830814256D810
:1011100030688007F4D42FB1DBF8001021F0805143
:10112000CBF80010A069C8B33D49091D0968C1F397
:10113000810102294AD00228504607D0C8F8600031
:1011400000E03CE0FFF7EAFC04463BE04746C8F815
:101150006000FFF7E3FC064605E000BFFFF7DEFC9A
:10116000801B02282BD828688001F7D4D4E9070116
:101170000843A16A2E4A490802EB0141626A41EA2A
:101180008211084394F82C1040EA0161C9F800105C
:1011900001203866FFF7C2FC044606E03EE000BFCF
:1011A000FFF7BCFC001B022809D828688001F7D58E
:1011B00034E000BFFFF7B2FC001B022802D9032075
:1011C000BDE8F88F28688001F4D427E00128F7D023
:1011D000D9F80000E26900F4800191421CD1226A32
:1011E00000F03F01914217D147F6C071626A014099
:1011F000B1EB821F10D1A26A4FF0FF3300F44031EF
:1012000003EB5202B1EB024F06D194F82C1000F020
:101210007060B0EB016F01D00120D1E70020CFE773
:101220000438024000004742800E474200700040F0
:101230000000FFFF7047704710B5040003D094F81A
:101240003D0010B107E0012010BD002084F83C00F3
:10125000204600F01EF8022084F83D00211D206881
:1012600000F04EFC012084F8460084F83E0084F82B
:101270003F0084F8400084F8410084F8420084F87C
:10128000430084F8440084F8450084F83D000020C1
:1012900010BD704790F83D10012901D00120704722
:1012A000022180F83D100168CA6842F00102CA605C
:1012B00000680E4988420ED0B0F1804F0BD00C4927
:1012C000884208D00B49884205D00B49884202D099
:1012D0000A49884204D1816801F00701062903D038
:1012E000016841F0010101600020704700000140E9
:1012F0000004004000080040000C00400040014095
:1013000070472DE9F04104460068C66805694FF052
:101310000007A90713D5B10711D5F91E01610120F6
:101320002077206880698007204602D0FFF7E8FF19
:1013300004E000F07EF8204600F07CF8277768078C
:1013400016D5700714D521686FF0040008610220DB
:1013500020772068806910F4407F204602D0FFF794
:10136000CFFF04E000F065F8204600F063F827772F
:10137000280715D5300713D521686FF008000861DC
:10138000042020772068C0698007204602D0FFF73C
:10139000B7FF04E000F04DF8204600F04BF8277747
:1013A000E80616D5F00614D521686FF01000086124
:1013B000082020772068C06910F4407F204602D0C2
:1013C000FFF79EFF04E000F034F8204600F032F80A
:1013D0002777E80708D0F00706D021686FF00100F2
:1013E0000861204600F028F8280608D5300606D502
:1013F00021686FF0800008612046FFF71BFF680638
:1014000008D5700606D521686FF0400008612046B7
:1014100000F01CF8A8060AD5B00608D521686FF0C0
:10142000200008612046BDE8F041FFF704BFBDE899
:10143000F08170477047000000680349884201D17D
:10144000FFF772BB70470000000001407047704713
:1014500070470000F8B5016804460868CA684B691F
:1014600010F00F0F4FF0000559D003F0010602F401
:101470009077374365D0C10705D0D10503D5616C9E
:1014800041F001016164410705D5D90703D0616CC2
:1014900041F002016164810705D5D90703D0616C71
:1014A00041F004016164010707D502F020013143D6
:1014B00003D0616C41F008016164616C00293AD08D
:1014C000800604D5900602D5204600F097FB2068E0
:1014D0004069616CC0F38010090700D460B32046F6
:1014E00000F065FB20684069400621D52068143073
:1014F00050E8001F21F0400140E80012002AF5D119
:10150000E06BA8B172490165E06BFFF705FA0028AE
:1015100011D0E06B016D01B0BDE8F04008478306D3
:101520000FD593060DD52046BDE8F84000F066BB08
:101530002046FFF78DFFF8BD2046FFF789FF656461
:10154000F8BD266B2023012E7ED1C6067CD5D6069B
:101550007AD508684868009048694FF0020640064E
:101560004DD5E26B106840684FF480770004000CA2
:101570003AD0A18D814237D9E085D069B8422DD0CB
:1015800020680C3050E8001F21F4807140E8001200
:10159000002AF5D12068143050E8001F21F0010125
:1015A00040E80012002AF5D12068143050E8001FEE
:1015B00021F0400140E80012002AF5D184F84230C1
:1015C000256320680C3050E8001F21F0100140E82E
:1015D0000012002AF5D1E06BFFF755F96663A08D84
:1015E000E18D401A81B206E0A18D8142A8D1D06977
:1015F000B842A5D166632046FFF729FFF8BDA08D4C
:10160000E18D401A81B2E08D0028F7D00029F5D095
:1016100020680C3050E8002F22F4907240E8002738
:10162000002FF5D12068143050E8002F22F001027D
:1016300040E80027002FF5D184F842302563206868
:101640000C3050E8002F00E006E022F0100240E8E5
:101650000023002BF3D1CDE705062BD5150629D5A0
:1016600094F841002128C9D1A068B0F5805F01D16C
:101670002069B0B1206A411C21622168007848606D
:10168000E08C401E0004000CE084B7D12068C168E3
:1016900021F08001C1602068C16841F04001C16053
:1016A000F8BD206A0088C0F308004860206A801CEA
:1016B0002062E5E74006F3D55006F1D5CA6820461A
:1016C00022F04002CA6084F8413000F007F9F8BD0A
:1016D000A11B000870B5040004D094F84100002557
:1016E00010B106E0012070BD84F84050204600F0A3
:1016F00023F8242084F841002068C16821F40051B7
:10170000C160204600F0DCFA2068016921F49041B4
:1017100001612068416921F02A0141612068C168A6
:1017200041F40051C1606564202084F8410084F8D0
:1017300042006563002070BD10B586B004461421D8
:101740006846FEF7F1FD18492068884229D11748FC
:101750000021026842F010020260006800F01000F0
:10176000059012481438026842F0010202600068D5
:1017700000F0010005904FF4C06000900220CDE918
:101780000101032003900720049069460848FFF7F1
:10179000D5F8002205212520FFF758FA2520FFF76C
:1017A00047FA06B010BD0000001001404438024066
:1017B0000000024090F84230202B01D002207047F8
:1017C00021B11AB10023036300F000BB0120704770
:1017D0003EB5184C6068A8B1217801F073FD164839
:1017E00002900223002202A9A06803F027FA012830
:1017F0000BD012A1AA20CDE90001134B13A21CA10A
:10180000012010E01CA18F20F5E70122094926489C
:10181000FFF7D0FF50B125A1BC20CDE900010A4B54
:101820000AA213A1032001F03FF93EBD25A1B82073
:10183000F3E70000B0000020A4A3A2A173656E64CA
:10184000206572726F720000695300082E2E5C4290
:1018500053505C55534152545F315C6273705F75F5
:101860006172745F6472697665722E6300000000B5
:101870004E4F5F54414700006572726F7220776966
:101880007468204E554C4C20706F696E74657220E0
:101890006F6620675F63697263756C61725F627502
:1018A0006666657200000000F800002048414C2088
:1018B0005541525420496E6974204661696C6564D3
:1018C0000000000048414C205541525420496E69A7
:1018D0007420537563636573732E00007047FEE7D1
:1018E00010B50B4A00210B4801F0A0FD0A4C084A34
:1018F000002120602432094801F098FD044A60600C
:1019000048320021064801F091FDA06010BD0000A2
:10191000C4520008311A000800000020A940000845
:10192000553D00080D4808B5016841F0040101600B
:10193000016801F004010091016841F0800101603B
:10194000016801F080010091016841F0010101602E
:10195000006800F00100009008BD0000303802402F
:101960000C4810B50A4901604FF4E1314160002193
:1019700081600C22C160C0E904128161C161FFF77E
:10198000A9FE002803D0BDE81040FEF77ABF10BDC5
:1019900000100140F8000020FEE7FEE72DE9F041CD
:1019A00007460B4815460E46007808B900F032FA93
:1019B000EFF31184202080F311882A4631463846FF
:1019C00000F008F8E1B281F31188BDE8F081000071
:1019D0008801002070B50E46144900EB400001EB71
:1019E000C0051446E86A183520B101280FD0022836
:1019F00005D113E0284600F041FAA04201D20024AC
:101A000011E022463146284600F070FA0BE02846E5
:101A100000F034FAA042F4D20446F2E731462846F8
:101A200000F037FA0446204670BD0000880100200F
:101A3000012001F0BFFCFBE710B54FF0E02000698A
:101A400003F08AFA012803D0BDE8104002F098BFE5
:101A500010BD000030B593B030216846FEF764FC3D
:101A600014210CA8FEF760FC1C480024016841F01A
:101A700080510160006800F08050119018480168A2
:101A800041F4404101600068022500F4404011909B
:101A90000120039010200490009506950820CDE9C0
:101AA00007406420CDE9090504200B906846FFF744
:101AB0000BFA08B172B6FEE70F20CDE90C054FF422
:101AC0008050CDE90E4003210CA81094FFF7F0F8E8
:101AD000002801D072B6FEE713B030BD4038024096
:101AE000007000400248016841F4700101607047D5
:101AF00088ED00E00148FFF704BC00004001002031
:101B0000F0B502681F4B204C204D214E4FF0804C09
:101B1000984207D0604505D0A04203D0A84201D02A
:101B2000B04203D122F070074A683A43984210D07D
:101B300060450ED0A0420CD0A8420AD0B04208D0D6
:101B4000144CA04205D0144CA04202D0134CA04229
:101B500003D122F44074CA6822434C6922F0800207
:101B600022438C68C4620C688462984201D109697E
:101B70000163016841F004010160012141610260DB
:101B8000F0BD0000000001400004004000080040DB
:101B9000000C00400040014000440140004801406A
:101BA00010B5806B0021C185FFF752FC10BD0168A4
:101BB0000C3151E8002F22F4907241E80023002BF1
:101BC000F5D10168143151E8002F22F0010241E8FB
:101BD0000023002BF5D1016B012909D101680C31DB
:101BE00051E8002F22F0100241E80023002BF5D12C
:101BF000202180F8421000210163704708B590F859
:101C00004210222901D0022008BD82684FF480537F
:101C10009A4201D1016921B1816A9A421BD04AB12D
:101C20000AE00268816A5268C2F308020A80816A87
:101C3000891C08E0026972B10268526802F07F02F2
:101C40000A70816A491C8162C18D491E0904090C10
:101C5000C18503D01BE002685268F1E70168CA68D9
:101C600022F02002CA600168CA6822F48072CA6049
:101C700001684A6922F001024A61202180F842107D
:101C800000214163026B012A03D0FFF7A1FD002070
:101C900008BD016301680C3151E8002F22F01002E9
:101CA00041E80023002BF5D101680A68D20602D56D
:101CB0000A6849680091818DFFF7C9FBE7E70000DA
:101CC00070B5044600680169E26821F4405111438F
:101CD00001612169A068E269084361691143084311
:101CE0002168CA6849F20C639A430243CA602068BB
:101CF0004169A26921F44071114341613149206871
:101D0000884202D03049884202D1FFF79BF801E0B7
:101D1000FFF788F8E2690023192164253226B2F51D
:101D2000004F626828D0A0FB0101930F9200FEF7DC
:101D3000B1FA0146B0FBF5F06FF01802504301EB29
:101D4000800006EB0010B0FBF5F000F0F002B1FBF4
:101D5000F5F002EB0012B1FBF5F06FF018035843F9
:101D600001EB800006EB0010B0FBF5F000F00F0077
:101D700021681044886070BDA0FB010192185B418E
:101D8000FEF788FA0146B0FBF5F00201B1FBF5F071
:101D90006FF01803584301EB800006EBC000B0FB66
:101DA000F5F000F0F80002EB4002B1FBF5F058430B
:101DB00001EB800006EBC000B0FBF5F000F007007F
:101DC000D6E70000001001400014014081628285C6
:101DD000C28500214164222180F84210016921B1AD
:101DE0000168CA6842F48072CA6001684A6942F0B8
:101DF00001024A610068C16841F02001C160002011
:101E0000704700000148FFF725BB0000F8000020E4
:101E1000FEE7000010B5124C03202061606111A0A4
:101E2000A06104F1A800E0614FF48060206200200E
:101E3000A0626062E0620BA1216604F595616166B3
:101E40001021A1662067E066606709A1E01DFEF72A
:101E50008FFA08A12046FEF78BFA2020A07110BD52
:101E6000880100205465726D696E616C000000008D
:101E70005254540053454747455200000269C16817
:101E80008A4203D88068401A104400E0501A401E6D
:101E900070472DE9F047C4681746894606464FF05B
:101EA00000083069A04201D9051B02E0B168201A80
:101EB0000D1AB0686D1E001BA84200D80546BD4231
:101EC00000D33D4670682A4620444946FEF713FA7F
:101ED000B0687F1B2C44A844A944A04200D1002430
:101EE000F460002FDDD14046BDE8F0872DE9F041D8
:101EF00004468846D4E90207C51BE16860681646B7
:101F00000844B54206D94146FEF7F5F9B819E06034
:101F1000BDE8F0812A464146FEF7EDF9761B08EB55
:101F2000050132466068FEF7E6F9E660F0E700007A
:101F30000FB47CB50C0009AD01D0611E00E000219A
:101F4000CDE90001064B6A462946089800F006F9DB
:101F5000002C02D0009A002111707CBC5DF814FBAB
:101F6000632800087CB50C001D461646014601D0CA
:101F7000601E00E00020CDE90010064B6A462946AD
:101F8000304600F0EBF8002C02D0009A00211170CE
:101F90007CBD0000632800080907090E002804DB47
:101FA00000F1E02080F80014704700F00F0000F10D
:101FB000E02080F8141D704702E008C8121F08C115
:101FC000002AFAD170477047002001E001C1121FBA
:101FD000002AFBD1704700002DE9FF5F82B000218D
:101FE000DDE90430020DDDF840B0034318D044F6BB
:101FF0001050A2F2FF3242431514119801281FD04D
:10200000A5EB0B00401C5FEA000A4FF000064E4FA4
:10201000DFF83891B046504615D5CAF1000413E0F8
:10202000119801244AA3012801D16FEA0B010298FB
:10203000119AC0E90031C0E9024206B0BDE8F09F44
:10204000CBF10000DFE704460021404A491842EB8B
:102050000450CDE9001012E0E00707D032463B46BD
:1020600040464946FEF778FA8046894632463B4666
:1020700010461946FEF770FA06460F466410002C0B
:10208000EAD1DDE90401DDE90023BAF1000F06DA47
:10209000FEF762FA42464B46FEF75EFA05E0FEF7AF
:1020A000CDFA42464B46FEF7C9FA04460E460022D8
:1020B000284BFEF74BFB03D84FF0FF30014607E0FB
:1020C0000022254B20463146FEF79FF9FEF725FBFF
:1020D000102409E0002C0ADB0A220023FEF7DAF8BC
:1020E000039B30321A55641E50EA0102F2D1641C7F
:1020F000039AC4F111031444119A012A03D0012256
:1021000008430DD10AE0084304D000204FF0110B22
:10211000119072E7A3EB0B056D1E0DE05B4504DD2E
:102120004FF0000205F1010504E003DA4FF0000270
:10213000A5F10105002AECD002981199C0E90231FD
:10214000C0E9004579E70000000014400000F03FBE
:10215000300000000000F0430000E03F2DE9FF4F99
:1021600095B09A46884606460025EEE1252877D1A7
:1021700000242746F94A0121039400E0044316F89D
:10218000013F203B01FA03F01042F7D130782A28B2
:1021900011D06FF02F033078A0F13002092A16D841
:1021A000039A44F0020402EB820203EB4202104461
:1021B000761C0390EFE758F8042B0392002A03DA09
:1021C000504244F40054039044F00204761C3078EA
:1021D0002E2816D116F8010F44F004042A280DD039
:1021E0006FF02F023078A0F13003092B09D807EBEC
:1021F000870302EB4303C718761CF3E758F8047B08
:10220000761C30786C280FD006DC4C2817D0682854
:102210000DD06A2814D104E0742810D07A280FD188
:102220000DE044F400140AE044F4801401E044F4A6
:1022300040147278824202D104F58014761C761C18
:10224000307866280BD013DC582877D009DC0028BA
:1022500075D04528F6D04628F4D047281AD193E106
:1022600018E0632835D0642879D0652812D18BE135
:10227000702873D008DC6728F1D069286FD06E28E9
:102280000DD06F2806D1ACE073282CD0752874D0FF
:10229000782853D05246179990476D1C54E1C4F3E7
:1022A0000250022809D003280DD0D8F800100428C5
:1022B0000DD00D6008F1040846E1D8F80010EA17C7
:1022C000C1E90052F6E7D8F800100D80F2E70D7072
:1022D000F0E718F8041B8DF8001000208DF80100BD
:1022E000EB46012003E058F804BB4FF0FF306107D4
:1022F0004FF0000102D40DE009F101018946B94215
:102300000FDA8145F8DB1BF809100029F4D108E049
:1023100009F1010189468142FADB1BF80910002905
:10232000F6D103985346A0EB090721463846179A81
:1023300000F080FA284400EB090507E044E008E1DA
:102340000DE01BF8010B524617999047B9F10109AE
:10235000F7D2534621463846179AF2E039E00A216F
:10236000C4F302524FF0000B0091022A06D058F835
:10237000040BC117032A09D00AE023E008F1070083
:1023800020F00702F2E80201904605E000B2C11712
:10239000042A01D140B2C117002906DA0A460021F9
:1023A000404261EB02012D2202E0220504D52B22DE
:1023B0008DF80420012203E0E20701D02022F7E794
:1023C000914657E00A2100E010214FF0000B0091E8
:1023D0000BE010214FF0000B44F00404082700919B
:1023E00003E008204FF0000B0090C4F30252022AD1
:1023F00005D058F8040B0021032A08D008E008F1A2
:10240000070020F00702F2E80201904603E080B2E4
:10241000042A00D1C0B24FF0000922072AD5327831
:10242000702A07D0DDF800C08CF0100C5CEA0B0CB1
:1024300005D00EE040228DF80420012208E050EA89
:10244000010306D030238DF804308DF805200222D8
:102450009146009B83F0080353EA0B030AD150EA2C
:10246000010201D1620705D530228DF804204FF01A
:1024700001097F1E3278582A04D039A20C920CAA86
:1024800002920BE03BA2F9E75B46009AFDF702FFE0
:102490000C9B9B5C029A521E0292137050EA01023E
:1024A000F2D1029804A9081A00F1200B600702D5A6
:1024B00024F4803400E001275F4502DDA7EB0B0028
:1024C00000E0002000EB0B01009003984944401A03
:1024D0000390E00306D453462146179A039800F070
:1024E000A9F90544002706E001A85246C05D1799E6
:1024F00090476D1C7F1C4F45F6DBE0030CD553461F
:102500002146179A039800F095F9054404E030201D
:102510005246179990476D1C0099481E009000295B
:10252000F5DC08E00298029952460078491C0291B5
:10253000179990476D1CBBF10001ABF1010BF1DC69
:102540005BE100F065F90544761C307800287FF4E3
:102550000DAE19B02846BDE8F08F00000928010033
:102560003031323334353637383961626364656609
:1025700000000000303132333435363738394142CB
:102580004344454600000000600700D4062708F1D8
:10259000070020F00700F0E80223804603F0004C1B
:1025A0005FEA0C0001D097A009E0200501D596A0B4
:1025B00005E0E00701D095A001E0AFF24C001390D8
:1025C000307823F0004365280CD006DC452809D07C
:1025D00046281DD047287FD13BE0662818D06728C1
:1025E0007AD136E00021112F01DB112000E0781CA8
:1025F000CDE9000104A90CA8FFF7EEFCDDE90D010F
:102600000C9A4FF0000B07F10109109200914EE077
:102610004FF000400097CDE9011004A90CA8FFF786
:10262000DBFCDDE90D020C9B0F994FF0000B91468E
:102630001093009211B9791C00EB0109B7EB090066
:1026400003D4C0F1FF3B07F10109A9EB070001909A
:1026500042E0012F00DA01270021112F01DD1120B6
:1026600000E03846CDE9000104A90CA8FFF7B4FC4E
:10267000DDE90D010C9A00914FF0000BB946109264
:1026800021070FD4009A4A4503DA914601E0A9F1E7
:102690000109B9F1010F05DD109AA9F10101515CA1
:1026A0003029F4D0B84202DA10F1040F03DA012124
:1026B000CDE9011010E0002803DC8344A9EB000100
:1026C00002E0411C494500DD8946A0EB0B00401C9F
:1026D00001904FF000400290200705D40198484532
:1026E00002DB4FF0FF30019000208DF84B00029884
:1026F0000DF14B07B0F1004F25D002200C902B209C
:102700000D90029800280CDA404202902D200D9086
:1027100007E00A210298FDF743FE3031029007F8E6
:10272000011D0C99481E0C900029F2DC029800282B
:10273000EFD1791E0D980870307800F0200040F03D
:10274000450007F8020D11A8C01BC01D0290139888
:10275000007800B1012000EB0901019801EBE07164
:10276000029801440398401A401E0390E00306D4E7
:1027700053462146179A039800F05CF805441398D5
:10278000007818B15246179990476D1CE00323D585
:1027900053462146179A039800F04CF805441BE075
:1027A000BBF1000F07DB0098584504DD109817991E
:1027B00010F80B0001E0179930205246904701981D
:1027C0000BF1010B401E05F10105019004D12E20F3
:1027D0005246179990476D1CB9F10001A9F1010902
:1027E000DEDC05E017F8010B5246179990476D1C87
:1027F0000299481E02900029F4DC53462146179A9C
:1028000003989EE62D0000002B0000002000000031
:102810002DE9F041044600251E461746880404D4DD
:1028200005E039462020B0476D1C641EF9D52846C6
:10283000BDE8F0812DE9F041044600251E46904692
:10284000C80301D5302700E02027880404D505E01F
:1028500041463846B0476D1C641EF9D52846BDE890
:10286000F0814A68002A06D00A68531C0B60107079
:102870004868401E4860704728B1D0E9191081426D
:1028800003D100207047FF2070470120704778B1C6
:10289000426E6421B2FBF1F301FB1322806E521CE5
:1028A000B0FBF1F301FB1300824203D1002070471B
:1028B000FF207047012070471CB56C2000F044FDDC
:1028C000040004D06C21FDF72FFD20461CBD06A19D
:1028D0001220CDE900010D4B0DA21CA1012000F03A
:1028E000E3F800201CBD00006572726F723A20632D
:1028F00072656174655F656D7074795F6369726339
:10290000756C61725F62756666657200815300085E
:102910002E2E5C4D6964646C6577617265735C4DE5
:1029200049445F63697263756C61725F6275666664
:1029300065725C6D69645F63697263756C61725F17
:102940006275666665722E63000000004E4F5F542C
:1029500041470000F0B585B0070007D11E4840F29E
:10296000E312036893B11D491DA09847214D00242F
:10297000052695F8F000C0B100F062FA04EB4410AF
:10298000411991F85100012812D017E01348CDE900
:102990000302009212A118A3CDE9013103461FA240
:1029A00025A1002000F080F8FEE705B03046F0BD1C
:1029B0001E2238463231FDF7E4FC30B1641CE4B22B
:1029C000052CDBD300F062FAEFE704EB4410284457
:1029D00090F83160F6E70000BC0000203054000899
:1029E00074616720213D202828766F6964202A2998
:1029F000302900002853002028257329206861739E
:102A000020617373657274206661696C656420610E
:102A1000742025733A256C642E0000002E2E5C6510
:102A20006173796C6F676765725C7372635C656C08
:102A30006F672E6300000000656C6F670000000088
:102A40002DE9F041174D002095F8F010012927D00D
:102A500000F02FFA060023D1012000F001FA002730
:102A600085F8F37085F8F470012085F8F5000520ED
:102A700000F028FA0024B84604EB4410471907F187
:102A800032001F21FDF750FC641C87F83180E4B24E
:102A900087F85180052CEFD3012085F8F0003046EF
:102AA000BDE8F081285300200FB42DE9F04F064611
:102AB0008BB08B460846FDF754FC00240A94074669
:102AC000A14609940594069407940894052E08D904
:102AD000B34840F241220368002B7DD0B149B2A037
:102AE0009847B84D95F8F100002876D02878B04284
:102AF00073D35846FFF72EFFB0426ED3691C584679
:102B0000FDF71DFC002868D00DF1680A00F098F967
:102B1000A84695F8F500A5F5806570B12946AAA2EA
:102B2000204600F0C7FA04469D4829191C3050F889
:102B30002620204600F0BEFA04440121304600F071
:102B40004FFB40B196482919001D50F82620204619
:102B500000F0B0FA04440221304600F041FBC8B155
:102B600029195A46204600F0A5FA04440F2F0BD825
:102B7000C7F10F01202205A8FDF7CFFB291905AAEF
:102B8000204600F097FA0444291990A2204600F04C
:102B900091FA04441C21304600F022FB00284BD05F
:102BA00029198BA2204600F085FA044404213046FE
:102BB00000F016FBA8B100F07BF902462919204667
:102BC00000F078FA04441821304600F009FB40B1C7
:102BD00029197EA2204601E035E0DBE000F06AFA28
:102BE00004440821304600F0FBFA90B100F05EF991
:102BF00002462919204600F05DFA044410213046AF
:102C000000F0EEFA28B1291970A2204600F052FA1D
:102C100004441021304600F0E3FA38B100F047F9DF
:102C200002462919204600F045FA0444291969A2F0
:102C3000204600F03FFA044420213046169A00F066
:102C40002FFBE0B90EE05748CDE90302009256A1F0
:102C500061A3CDE90131034668A26FA10020FFF70F
:102C600023FFFEE740213046179A00F019FB30B9E8
:102C700080213046189A00F01CFB002856D02919F4
:102C800067A2204600F016FA044420213046169A26
:102C900000F006FBD0B129192046169A00F00AFA76
:102CA000044440213046179A00F0FAFA10B129196D
:102CB0005CA207E080213046189A00F0FAFA28B1A9
:102CC000291942A2204600F0F5F90444802130463B
:102CD000189A00F0EEFAB8B153A2052109A8189B82
:102CE000FFF726F9291909AA204600F0E3F9044460
:102CF00040213046179A00F0D3FA28B1291933A29F
:102D0000204600F0D7F9044440213046179A00F0DD
:102D1000C7FA28B129192046179A00F0CBF90444C4
:102D2000291942A2204600F0C5F90444C4F5806187
:102D300028195346199AFFF715F904444FF4806295
:102D4000944204D8002802DB601D904201D940F271
:102D5000FB3498F82000464640B11A4905F8049023
:102D60002031A1F58460FDF7EAFA88B196F8F50004
:102D700028B129192EA2204600F09CF904442919F3
:102D80002DA2204600F096F901192C4800F093F886
:102D900000F07CF80BB0BDE8F00F5DF814FB00000C
:102DA000BC000020485400086C6576656C203C3DF2
:102DB00020454C4F475F4C564C5F564552424F534F
:102DC00045000000285300201B5B0000200000008D
:102DD0005B0000005D2000002825732920686173D6
:102DE00020617373657274206661696C656420612B
:102DF000742025733A256C642E0000002E2E5C652D
:102E00006173796C6F676765725C7372635C656C24
:102E10006F672E6300000000656C6F6700000000A4
:102E2000280000003A000000256C64002900000022
:102E30001B5B306D000000000A000000284F0020DE
:102E400070B5064C012594F8F20020B100F038F876
:102E500084F8F45070BD84F8F35070BD28530020FE
:102E60000949002881F8F2000DD0074891F8F410C4
:102E700090F8F30019B1002805D100F022B800281D
:102E800001D000F01DB870472853002070B5064CE3
:102E9000002594F8F20020B100F013F884F8F45003
:102EA00070BD84F8F35070BD285300207047704700
:102EB0007047002070470A4601460020FEF76EBDAD
:102EC0007047704710B586B00446052807D90D48ED
:102ED0004FF4AD72036833B10B490CA09847124808
:102EE000047006B010BD0848CDE90302009207A1A6
:102EF0000EA3CDE90131034615A21CA10020FFF766
:102F0000D3FDFEE7BC000020045400086C65766524
:102F10006C203C3D20454C4F475F4C564C5F56451E
:102F200052424F53450000002853002028257329A2
:102F30002068617320617373657274206661696CC7
:102F400065642061742025733A256C642E000000AE
:102F50002E2E5C656173796C6F676765725C737246
:102F6000635C656C6F672E6300000000656C6F67C3
:102F70000000000030B585B00D460446052807D98D
:102F80000E484FF4A07203684BB10D490DA098474D
:102F9000134800EB8400C0F8D85005B030BD084895
:102FA000CDE90302009207A10EA3CDE9013103464A
:102FB00015A21CA10020FFF777FDFEE7BC00002052
:102FC000E75300086C6576656C203C3D20454C4F0E
:102FD000475F4C564C5F564552424F5345000000E8
:102FE000285300202825732920686173206173739A
:102FF000657274206661696C656420617420257354
:103000003A256C642E0000002E2E5C656173796C8D
:103010006F676765725C7372635C656C6F672E6364
:1030200000000000656C6F67000000000EB50A48E4
:1030300090F8F01000290DD0012180F8F11007A2BE
:1030400008A1F6208DE80700104B11A217A103205C
:10305000FFF72AFD0EBD000028530020322E322E2D
:1030600039390000456173794C6F67676572205686
:10307000257320697320696E697469616C697A656A
:1030800020737563636573732E0000009E53000800
:103090002E2E5C656173796C6F676765725C737205
:1030A000635C656C6F672E6300000000656C6F6782
:1030B000000000002DE9F043DFF88C90DFF88C80F1
:1030C00085B00D0006461446174606D1D8F80030E4
:1030D0002BB12C2249461EA098477CB115E01CA2BA
:1030E00002922C20CDE903901AA3CDE90003164BE0
:1030F00021A229A10020FFF7D7FCFEE7D8F8003075
:103100007BB12D22104926A098474FF48062207889
:10311000B0B13146761C914212D205F8010B641C05
:10312000F5E71FA202922D20CDE9039009A3CDE976
:103130000003054B10A218A10020FFF7B5FCFEE725
:1031400005B0E01BBDE8F08380540008BC000020FF
:103150006473740028257329206861732061737378
:10316000657274206661696C6564206174202573E2
:103170003A256C642E0000002E2E5C656173796C1C
:103180006F676765725C7372635C656C6F675F75B0
:1031900074696C732E630000656C6F67000000003B
:1031A000737263000148406870470000B00000205F
:1031B00010B50B4602000FD0FFF75EFB70B1906EAA
:1031C0006421B0FBF1F401FB1400105C1870906EE8
:1031D000401C9066002010BDFF2010BDFE2010BDD9
:1031E00030B585B00D460446052807D9104840F291
:1031F000E222036863B10F490FA09847154800EB1E
:103200008400D0F8D800284000D0012005B030BD9F
:103210000848CDE90302009207A10FA3CDE90131CF
:10322000034616A21CA10020FFF73EFCFEE70000AB
:10323000BC000020545400086C6576656C203C3D51
:1032400020454C4F475F4C564C5F564552424F53BA
:103250004500000028530020282573292068617349
:1032600020617373657274206661696C65642061A6
:10327000742025733A256C642E0000002E2E5C65A8
:103280006173796C6F676765725C7372635C656CA0
:103290006F672E6300000000656C6F670000000020
:1032A00010B522B1FFF79CFF08B1012010BD00202E
:1032B00010BD10B522B1FFF793FF08B1012010BD7A
:1032C000002010BD30B50D4604000ED0FFF7DFFA28
:1032D00068B1606E6421B0FBF1F201FB120025546D
:1032E000606E401C6066002030BDFF2030BDFE20B7
:1032F00030BDFDF721FCFEF7ADFBFEF713FBFEF73B
:103300002FFBFFF79DFBFF210020FFF733FE072176
:103310000120FFF72FFE07210220FFF72BFE0721D8
:103320000320FFF727FEA7210420FFF723FEA72194
:103330000520FFF71FFEFFF779FE00F049F8FEF7C2
:10334000CFFA00F057F8FEE7F0B50B30154D20F03E
:1033500007010024144A0FE003688B420BD38B4211
:1033600005D95E1A43184768C3E9006700E043685F
:10337000136002C004E0021D10680028ECD1204652
:10338000002802D1286808B10020F0BD064A07488D
:103390001060074A121A22F00702C0E90024012037
:1033A0002860D7E7F4000020F0000020245400201B
:1033B0002056002010B5EFF3058111B16FF0050420
:1033C00003E0002408B101F07BF9204610BD0000A5
:1033D000EFF3058010B16FF00500704704480168F5
:1033E00011B14FF0FF30704701210160002070479C
:1033F0006C00002010B5EFF3058010B16FF00500F0
:1034000010BD08480168012902D04FF0FF3010BDFF
:10341000054A002182F8141D0221016001F0B8F96B
:10342000002010BD6C0000200BE000E02DE9FF4102
:103430004FEA01034FF00005EFF30581039549BB07
:1034400040B38027182100244AB3166806B13446D9
:1034500096691EB13146761E382E02D21679F607CD
:1034600003D0002004B0BDE8F081566906B1B7086A
:10347000D2F808C0BCF1000F0DD0D5685C2D18D370
:1034800012693AB136B18DE806103A46214601F08C
:1034900038FD03900DE0D6685EB912694AB903AAF7
:1034A000CDE90012BAB2214601F0FEFC012800D09D
:1034B00003950398D6E700002DE9F041134C0F4621
:1034C0000546E6682068001D00F0C6FF681C07D1AD
:1034D00037B12168BDE8F0410D48091D01F00CB875
:1034E00020683544B5424560216805D2A06BBDE82F
:1034F000F041091D00F0E8BF606B091D00F0E4FF1A
:10350000A06A854200D2A562BDE8F0811C000020BF
:10351000300B00202DE9F041054600F0F9FF2D4C5D
:10352000A068401CA06020682B4F10B1606930B3C8
:103530002BE02560A068012827D1002606EB860035
:1035400007EB800000F0B2FF761C382EF6D323483C
:1035500000F0ACFF2148143000F0A8FF1F482830CD
:1035600000F0A4FF1D483C3000F0A0FF1B48503085
:1035700000F09CFF194860631430A06305E02068E8
:10358000E96AC06A884200D82560606A401C6062AF
:103590006864E86A2169884200D9206100EB8000F4
:1035A00007EB8000291D00F0A7FF00F0D1FF606944
:1035B00000280CD02068E96AC06A884207D208490E
:1035C0004FF080500860BFF34F8FBFF36F8FBDE89F
:1035D000F08100001C00002080060020E00A00208E
:1035E00004ED00E038B500F093FF104C2068C8B936
:1035F0000F4800F05BFF0E48143000F057FF0C48F6
:10360000E060143020610A4B0020F03B009003F191
:10361000500210210A2001F0EAF9206010B105A142
:1036200001F018F8BDE8384000F092BF58000020C3
:10363000340C0020546D72510000000030B4026C54
:103640000B46002A0BD0C1681144C1608468A142B6
:1036500001D30168C16030BC1846FCF74CBE30BCD9
:1036600070472DE9F041856B174604460026026C31
:1036700082B1C7B1E068FCF73EFEE168206C091A30
:10368000E1602268914202D2A168081AE060022F2C
:1036900016D017E02068A8B9A06801F0D5FC06464E
:1036A0000020A0600EE06068FCF725FE216C6068D9
:1036B00008446060A168884204D32068606001E02B
:1036C00005B16D1E6D1CA5633046BDE8F08110B5D7
:1036D000044690F8590058B101280CD002280FD0A8
:1036E000502080F31188BFF34F8FBFF36F8FFEE739
:1036F000206B00F041FF2046BDE8104000F03CBFC9
:1037000010BD000010484FF47051420706D0C01D94
:103710000D4920F00700411AC1F570510B4A0023F2
:103720000144C2E900030839183A21F00701116089
:103730004B600B600B1AC0E9001393604FF0004020
:10374000536050617047000014130020880000206F
:10375000144E154CA6F29C474FF08058DFF84C9061
:1037600012E000BF00F0D4FEF068C568281D00F02C
:1037700073FEA068401EA0606068401E606000F09C
:10378000E7FE2846FFF7A3FF60680028EAD1386803
:103790000128F9D9C9F80080BFF34F8FBFF36F8FAD
:1037A000F2E700001C0B00201C00002004ED00E0EC
:1037B00070B51D46049C51B1C4F80020C4E90F0146
:1037C0000121204601F046F984F84C5070BD246078
:1037D000F4E700002DE9F05F8846DDE90B9415461B
:1037E000834691009A460A9EA522206BFCF795FD20
:1037F0006FF00301206B01EB8501084420F00707FF
:10380000780707D0502080F31188BFF34F8FBFF3A4
:103810006F8FFEE70025B8F1000F0FD05FF00000BA
:10382000221818F8001082F8341018F8001011B19E
:10383000401C1028F4D384F8435001E084F834503D
:10384000382E00D33726E662C4E91365201D00F048
:1038500038FE04F1180000F034FE2461C6F138008F
:103860006462A061656584F85850524659463846EE
:1038700000F05AFA2060B9F1000F01D0C9F80040F9
:10388000BDE8F09F30B5114900E011460A68824258
:10389000FBD34B685C18844203D1406818444860ED
:1038A000084643681C18944209D1084C183C246807
:1038B000A24209D052681A4442600A681268026043
:1038C000814200D0086030BD0460F9E78800002024
:1038D00070B5002441600B4D0061914206D8D11AA9
:1038E0008269914206D2011D286907E09A4203D2FB
:1038F000994201D3012403E0011DE86800F0E4FDD2
:10390000204670BD5800002010B5044600F000FEAF
:10391000A06B28B15FF0000400F01AFE204610BD35
:103920000124F9E730B589B03C4D6EE004980028D9
:1039300006DADDE90601059A90470498002864DB61
:10394000069C606910B1201D00F086FD03A800F000
:10395000D7F8024604980A2857D2DFE800F0050598
:10396000052D334A05052D3394F8280040F0010059
:1039700084F828000599A069059B01442046FFF7BB
:10398000A7FF68B3216A2046884794F828004007BB
:103990003BD5002000900598A169002342181946E4
:1039A000204601F05BFCD8B9502080F31188BFF3AA
:1039B0004F8FBFF36F8FFEE714F8280F20F0010040
:1039C000207022E094F8280040F0010084F82800DC
:1039D0000598A06128B1811813462046FFF778FFAB
:1039E00013E0502080F31188BFF34F8FBFF36F8F28
:1039F000FEE794F82800810703D4204600F0BCFDC0
:103A000003E020F0010084F82800002204A92868BF
:103A100001F074F9002889D109B030BD58000020A8
:103A20002DE9FC410F46054600F0F6FE01A800F026
:103A300067F80446019818B101F07EFBBDE8FC81EF
:103A4000254EAFB130690068D0B30027291B3A4634
:103A5000306800F013FE01F06FFB0028EED11F4923
:103A60004FF080500860BFF34F8FBFF36F8FE5E7D3
:103A7000A542EBD801F060FBF0682746C068C46837
:103A8000201D00F0E9FC94F82800410719D5A06931
:103A90002B4641193A462046FFF71AFFA8B10020ED
:103AA0000346014600902A46204601F0D7FB60B944
:103AB000502080F31188BFF34F8FBFF36F8FFEE765
:103AC00007E020F0010084F82800216A204688479A
:103AD000B4E70127BAE700005800002004ED00E039
:103AE0000648416B096829B1416BC968C9684968D2
:103AF000816270474FF0FF31FAE700001C000020A0
:103B000070B5054601F036FA064E0446B0688442A8
:103B100003D200F009F8012000E0002028602046D0
:103B2000B46070BD58000020F8B5194D20E0C068A1
:103B3000C4680668201D00F08FFC216A2046884773
:103B400094F82800400713D5A0693044B04206D944
:103B500024616060211DE86800F0B6FC08E00020E8
:103B60000346014600903246204601F077FB38B10B
:103B7000E86801680029DAD12969C5E90310F8BDB0
:103B8000502080F31188BFF34F8FBFF36F8FFEE794
:103B90005800002008484068401C4FF0500080F357
:103BA000118804D0BFF34F8FBFF36F8FFEE7BFF3D1
:103BB0004F8FBFF36F8FFEE790000020074CE06847
:103BC000016841B1C0680021D0F80000FFF728FF6C
:103BD000FFF7A8FEF3E701210020F7E758000020D7
:103BE0002DE9F041044600F093FC94F9455004F1AE
:103BF000240609E0606A48B1304601F065FA08B170
:103C000000F08CFD6D1E6DB2002DF3DC4FF0FF3621
:103C100084F8456000F09CFC00F07AFC94F9445074
:103C200004F1100709E0206948B1384601F04CFA68
:103C300008B100F073FD6D1E6DB2002DF3DC84F849
:103C40004460BDE8F04100F083BC00002DE9F04184
:103C50000546002700F0E0FD324E306808B9FFF756
:103C600051FD706905424ED1C5B3083568070ED0C5
:103C700005F00700C0F108000544680707D0502090
:103C800080F31188BFF34F8FBFF36F8FFEE72DB323
:103C90007068854237D82348183001460C6801E027
:103CA00020460C466168A94202D221680029F7D15A
:103CB00031688C4227D00768216801606068083746
:103CC000411B10290FD96019420708D0502080F3FA
:103CD0001188BFF34F8FBFF36F8FFEE713E0416092
:103CE0006560FFF7CFFD61687068401A7060B26868
:103CF000904200D2B060706901430020C4E9000125
:103D0000F068401CF06001F017FA780707D05020E7
:103D100080F31188BFF34F8FBFF36F8FFEE73846F4
:103D2000BDE8F0817000002010B5031F4FF08074D3
:103D30001C601B1F21F001011960191F044B0B604F
:103D400014390A60091F6FF0020244380A6010BD7E
:103D5000953B0008F0B585B000208DF81000039069
:103D6000FEF7AAFD050009D16FA12620CDE90001CB
:103D7000754B76A27EA10120FEF796FE7E4C7FA1B8
:103D80002C206560CDE900016F4B70A278A1032063
:103D9000FEF78AFE2846FEF76FFD48B97FA1312065
:103DA000CDE90001684B69A271A10320FEF77CFEFA
:103DB0002846FEF76CFD48B97CA13720CDE900010B
:103DC000614B62A26AA10320FEF76EFE0F21284616
:103DD000FFF778FA48B979A13D20CDE900015A4BA7
:103DE0005AA263A10320FEF75FFE04A92846FFF74D
:103DF000DFF948B977A14420CDE90001524B53A225
:103E00005BA10320FEF750FE9DF8102076A146200E
:103E10008DE807004C4B4DA255A10320FEF744FE50
:103E20002846FEF729FD48B95CA14B20CDE90001E9
:103E3000454B46A24EA10320FEF736FE2846FEF76C
:103E400026FD48B959A14F20CDE900013E4B3FA2C4
:103E500047A10320FEF728FE00220421012000F0E4
:103E6000A5FDA06048B930A15720CDE90001364B2F
:103E700036A23FA10120FEF717FE61A15920CDE92E
:103E80000001314B31A23AA10320FEF70DFE0122C1
:103E900039496548FDF78EFC002837D063A16920B9
:103EA000CDE90001284B29A231A10320FEF7FCFD3A
:103EB000644E4FF6FF7772253A4603A9A06800F0DA
:103EC0001DFF039860A10095CDE901101E4B1FA2B4
:103ED00027A10320FEF7E8FD0398B042ECD15F482C
:103EE00002905F480223002202A9006800F0F6FD5C
:103EF00001280ED05BA17D20CDE90001124B13A259
:103F00001BA10120FEF7D0FD05B0F0BD58A1652032
:103F1000C6E75DA18120CDE900010B4B0BA214A1E6
:103F20000420FEF7C1FDC7E763697263756C6172B7
:103F30005F6275666665722063726561746520668E
:103F400061696C6564000000585300082E2E5C42C5
:103F500053505C55534152545F315C6273705F75CE
:103F60006172745F6472697665722E63000000008E
:103F70004E4F5F5441470000B000002063697263F8
:103F8000756C61725F6275666665722063726561E9
:103F9000746520537563636573732E00627566667E
:103FA00065725F69735F656D7074790062756666CE
:103FB00065725F69735F66756C6C0000627566663A
:103FC00065725F696E737465725F73756363657341
:103FD000730000006275666665725F6765745F7383
:103FE00075636365737300006275666665725F7200
:103FF0006561645F6F7574203D205B25645D000022
:1040000071756575655F756172745F6972715F74F2
:10401000687265616420637265617465207375639D
:104020006365737300000000F800002048414C20D5
:104030005541525420496E6974204661696C65642B
:1040400000000000A4A3A2A1726563656976655FA4
:1040500064617461203D205B25785D00B4B3B2B12A
:10406000A000002073656E64206572726F7200009C
:1040700048414C205541525420496E697420537573
:1040800063636573732E00007851756575655365BC
:104090006E6420746F20656E642073656E64207397
:1040A00075636365737300002DE9F04F85B08CA1D3
:1040B0000F20CDE90001924B92A299A10320FEF7B7
:1040C000F3FC994D00263246042101206E6000F079
:1040D0006DFC6860002833D094A11720CDE9000161
:1040E000874B88A28EA10320FEF7DEFC97A1182043
:1040F0006A688DE80700824B82A289A10320FEF73F
:10410000D3FC00BFFFF74EF8DFF858924FF6FF7B65
:104110004FF02308A86084495A460C31686800F0C3
:10412000EDFDE96890A2CDF80080CDE90121744B46
:1041300074A27BA10320FEF7B7FCA86858B159E030
:104140008EA11420CDE900016D4B6EA274A1032055
:10415000FEF7AAFCD6E790A12820CDE90001684B24
:1041600068A26FA10120FEF79FFC05B0BDE8F08FAB
:104170008DF80C6003A9A868FFF71AF80220FFF772
:1041800019F92869012802D0022833D110E09DF8DE
:104190000C00FE282ED10220286183A14720CDE902
:1041A0000001574B57A25EA10320FEF77DFC21E0E2
:1041B0009DF80C00FF2826D080A17B22CDE90021AC
:1041C00002904F4B4FA256A10320FEF76DFC2878BA
:1041D0009DF80C207FA109F80020401CC0B2287077
:1041E0008322CDE900210290454B46A24CA1032039
:1041F000FEF75AFCA868FEF73FFB0028B8D1012063
:10420000FFF7D8F887E778A15120CDE900013C4BB2
:104210003CA243A10320FEF747FC01202861297836
:10422000582209EB010074A110F8010CCDE900211E
:10423000049002900027324B32A239A10320FEF7EE
:1042400033FC00244FF05C0A0EE000BF19F80400B4
:104250006DA2CDF800A0CDE90120294B29A230A103
:104260000320FEF721FC641C2878401E8442EDDB0D
:1042700029780020491E03E019F80020401C17444B
:104280008842F9DB65A06621CDE900101C4B1DA218
:10429000029723A10320FEF707FC0498B84214D12B
:1042A00000246D270DE000BF19F8040062A10097FB
:1042B000CDE90110124B13A219A10320FEF7F4FB64
:1042C000641C2878401E8442EEDB29780022481EB8
:1042D0004B4601E05E54521C8242FBDB2E7089E7A4
:1042E000756172745F7265635F415F66756E6320AE
:1042F000496E697420537563636573730000000031
:10430000485300082E2E5C4150505C554152545C7D
:10431000756172745F70726F636573732E630000F2
:104320004E4F5F54414700009C0000207175657539
:10433000655F6972715F7265635F4120496E697480
:1043400020537563636573730000000071756575B4
:10435000655F6972715F7265635F41203D205B2517
:10436000785D0000144F0020726563656976655FB3
:1043700064617461203D205B25785D007175657511
:10438000655F6972715F7265635F4120496E697430
:10439000206661696C6564006572726F7220706F6F
:1043A000696E74657200000044617461207061631D
:1043B0006B65742073746172740000004652414D45
:1043C000455F484541442064617461203D205B2580
:1043D000645D0000646174615F636F756E74657223
:1043E000203D205B25645D00446174612070616341
:1043F0006B657420656E6400646174615F73756DD4
:10440000203D205B25645D007265636569766520EB
:1044100064617461203D205B25645D0063616C63B1
:10442000756C6174656420646174615F73756D207F
:104430003D205B25645D000063616C63756C617495
:1044400065642072656365697665206461746120C6
:104450003D205B25645D0000D0E9013201699A606E
:10446000D0E901235A604A68824201D182684A60D9
:10447000002202610868401E08600868704700005A
:10448000034B036003F15C000860802010607047FC
:104490005C0C0020044B036003F15C0008604FF4E7
:1044A0008070106070470000B80E002000F1080115
:1044B0004FF0FF32C0E90112C160016100210160CB
:1044C000704700210161704730B50B685A1C02D05B
:1044D00000F1080202E0026904E0224654682568FF
:1044E0009D42FAD953684B6099608A6051600861B7
:1044F0000168491C016030BD42684A6093688B6066
:1045000093685960916008610168491C01607047B7
:10451000502080F31188BFF34F8FBFF36F8F0A498C
:104520004868401C486001280CD10848006810F019
:10453000FF0F07D0502080F31188BFF34F8FBFF3D8
:104540006F8FFEE7704700009000002004ED00E050
:104550000849486828B1401E486001D180F311889D
:104560007047502080F31188BFF34F8FBFF36F8FD8
:10457000FEE700009000002070B500282AD0164DFC
:10458000A0F1080460686969084207D1502080F3EF
:104590001188BFF34F8FBFF36F8FFEE722683AB1E8
:1045A000502080F31188BFF34F8FBFF36F8FFEE76A
:1045B0008843606000F030F96068696808446860AA
:1045C0002046FFF75FF92869401C2861BDE870406C
:1045D00000F0B2BD70BD0000700000204FF0E02080
:1045E00000210161816105494FF47A720968B1FBCC
:1045F000F2F1491E41610721016170471800002056
:1046000010B5FBF731FE114910280ED300F1E02060
:1046100090F8F0030A78904207D2502080F3118876
:10462000BFF34F8FBFF36F8FFEE7094800688968BB
:1046300000F4E060884207D9502080F31188BFF36E
:104640004F8FBFF36F8FFEE710BD0000900000207A
:104650000CED00E010B5084B002200BF53F83240CB
:104660001CB1521C082AF9D310BD43F8321003EBD9
:10467000C201486010BD00004006002070B515461C
:104680000E460446FFF744FF94F944100020491CED
:1046900001D184F8440094F94510491C01D184F8F3
:1046A0004500FFF755FFA06B28B92A46314604F1B3
:1046B000240000F051F82046BDE87040FFF790BAA2
:1046C00010B5020014D00F48006B38B1502080F3B1
:1046D0001188BFF34F8FBFF36F8FFEE700F09CF898
:1046E00000211046FEF7E8FE00F026FD002807D165
:1046F00005494FF080500860BFF34F8FBFF36F8FB5
:1047000010BD00001C00002004ED00E002490A6A10
:104710000260C968416070471C0000200149012007
:10472000C86170471C00002010B50C4650B1094903
:1047300009681831FFF7C8FE2046BDE81040012186
:10474000FEF7BABE502080F31188BFF34F8FBFF33E
:104750006F8FFEE71C00002070B514460D4668B14F
:104760000A4909681831FFF7C7FE0CB14FF0FF3551
:1047700021462846BDE87040FEF79EBE502080F3DB
:104780001188BFF34F8FBFF36F8FFEE71C0000202F
:1047900030B587B00024039405AA04A903A80494A3
:1047A000FFF76EFEDDE903010094CDE9011000235F
:1047B00015A11748059A00F0A4FB164D0028E862E1
:1047C0001FD000F01BFD012809D0401C19D150203A
:1047D00080F31188BFF34F8FBFF36F8FFEE7502038
:1047E00080F31188BFF34F8FBFF36F8F4FF0FF300F
:1047F000A86201206861EC6007B0BDE8304000F0BD
:1048000045B807B030BD000049444C4500000000E9
:10481000513700081C0000200248016B491C01634D
:10482000704700001C000020164810B5016B11B144
:104830000121C16110BD0021C1610169124A01E07D
:10484000B9B1491E01EB810352F82330002BF7D098
:1048500001EB810302EB830202F1080453685B68F9
:104860005360A34201D15B685360DA680260016162
:1048700010BD502080F31188BFF34F8FBFF36F8FAF
:10488000FEE700001C000020800600201CB5374811
:104890000168374A914207D1502080F31188BFF355
:1048A0004F8FBFF36F8FFEE700683149491E884282
:1048B00007D1502080F31188BFF34F8FBFF36F8F64
:1048C000FEE72C4908780190FF20087008788DF8E1
:1048D00000009DF800009DF8002000F0F0009042DC
:1048E00007D0502080F31188BFF34F8FBFF36F8F35
:1048F000FEE79DF80000204C00F0500020700720DB
:10490000A06005E09DF8002052008DF80020401EB8
:104910009DF800201206F5D4A060032807D050208F
:1049200080F31188BFF34F8FBFF36F8FFEE74FF413
:104930004070A060019808700C482030016841F474
:1049400070010160016841F070410160FFF746FEAF
:1049500000206060FBF750FC0848016841F04041CE
:104960000160FBF735FC00201CBD000000ED00E0FD
:1049700071C20F4100E400E09000002034EF00E03D
:1049800010B5502080F31188BFF34F8FBFF36F8FA6
:1049900000F0F6FA18B104494FF08050086000208A
:1049A00080F3118810BD000004ED00E0F8B5174653
:1049B0000E46050013D005FB06F05030FFF746F910
:1049C00004000AD0002084F8460004F150023B465F
:1049D000314628460094FEF7EBFE2046F8BD5020F5
:1049E00080F31188BFF34F8FBFF36F8FFEE738B5A9
:1049F000049D18B153B1CAB181B120E0502080F3B9
:104A00001188BFF34F8FBFF36F8FFEE7502080F305
:104A10001188BFF34F8FBFF36F8FFEE7502080F3F5
:104A20001188BFF34F8FBFF36F8FFEE739B150206E
:104A300080F31188BFF34F8FBFF36F8FFEE75024D1
:104A40001C46012384F846302B460094FEF7B0FE46
:104A5000204638BD70B50D46040025D0FFF758FD3F
:104A6000D4E90F20216802FB0011A1600021A1639D
:104A7000216861600A46D4E90F01401E00FB012154
:104A8000E16021464FF0FF3001F8440F487004F117
:104A900010008DB1FFF70AFD04F12400FFF706FDB9
:104AA000FFF756FD012070BD502080F31188BFF341
:104AB0004F8FBFF36F8FFEE721690029F0D000F020
:104AC00003FB0028ECD004494FF080500860BFF38E
:104AD0004F8FBFF36F8FE3E704ED00E02DE9FF4751
:104AE00082B01D468A464FF00008040003D0BAF198
:104AF000000F08D011E0502080F31188BFF34F8FD2
:104B0000BFF36F8FFEE7206C38B1502080F311881F
:104B1000BFF34F8FBFF36F8FFEE7022D0AD1E06B1B
:104B2000012807D0502080F31188BFF34F8FBFF3C7
:104B30006F8FFEE700F010FA3F4F4FF000094FF083
:104B4000805648B9049838B1502080F31188BFF3DB
:104B50004F8FBFF36F8FFEE7FFF7DAFCA06BE16BBF
:104B6000884207D3022D05D00498D0B1B8F1000FC8
:104B70001AD01EE02A4651462046FEF772FD616AB1
:104B800019B104F1240000F09FFA20B13E60BFF398
:104B90004F8FBFF36F8FFFF7DBFC012006B0BDE83E
:104BA000F087FFF7D5FC22E06846FFF7AFFD4FF036
:104BB0000108FFF7CDFCFFF72FFEFFF7A9FC94F9E2
:104BC0004400401C01D184F8449094F94500401CF5
:104BD00001D184F84590FFF7BBFC04A9684600F0BA
:104BE00029F930B12046FEF7FBFF00F0A5FA0020BE
:104BF000D4E7FFF78DFCA06BE16B884213D1FFF780
:104C0000A7FC04F110000499FFF78EFD2046FEF783
:104C1000E7FF00F091FA00289ED13E60BFF34F8F6E
:104C2000BFF36F8F98E7FFF793FC2046FEF7D8FF9E
:104C300000F082FA90E7000004ED00E02DE9F04773
:104C40001F4690468946040003D0B9F1000F08D0F2
:104C500011E0502080F31188BFF34F8FBFF36F8FA7
:104C6000FEE7206C38B1502080F31188BFF34F8FDE
:104C7000BFF36F8FFEE7022F0AD1E06B012807D048
:104C8000502080F31188BFF34F8FBFF36F8FFEE783
:104C9000FFF7B6FC5020EFF3118680F31188BFF3C5
:104CA0004F8FBFF36F8FA06BE16B884206D3022F4B
:104CB00004D0002086F31188BDE8F08794F94550B0
:104CC000A06B3A4649462046FEF7CBFC681C04D050
:104CD0006D1C84F845500120ECE7606A0028FAD08A
:104CE00004F1240000F0F0F90028F4D0B8F1000F2E
:104CF000F1D00121C8F80010EDE700002DE9F747D9
:104D0000002683B08A46040003D0BAF1000F08D011
:104D100011E0502080F31188BFF34F8FBFF36F8FE6
:104D2000FEE7206C38B1502080F31188BFF34F8F1D
:104D3000BFF36F8FFEE700F00FF9DFF8F4804FF05C
:104D400000094FF0805748B9059838B1502080F3DA
:104D50001188BFF34F8FBFF36F8FFEE7FFF7D8FBCC
:104D6000A56BC5B151462046FEF768FC6D1EA563D4
:104D7000206950B104F1100000F0A6F928B1C8F87C
:104D80000070BFF34F8FBFF36F8FFFF7E1FB012080
:104D900006B0BDE8F087059808B11EB106E0FFF740
:104DA000D7FB27E06846FFF7B1FC0126FFF7D0FBF1
:104DB000FFF732FDFFF7ACFB94F94400401C01D132
:104DC00084F8449094F94500401C01D184F8459042
:104DD000FFF7BEFB05A9684600F02CF80028204626
:104DE0000AD0FEF7FDFE00F0A7F92046FEF78CFD85
:104DF0000028B3D00020CBE7FEF786FD90B104F188
:104E000024000599FFF790FC2046FEF7E9FE00F02C
:104E100093F90028A2D1C8F80070BFF34F8FBFF3F9
:104E20006F8F9BE72046FEF7DBFE00F085F995E7E4
:104E300004ED00E02DE9F0410C46050011D0C4B1AD
:104E4000FFF766FB174BDA686E682068911B471CFA
:104E500017D02F681B6A9F4219D0964217D8012499
:104E600010E0502080F31188BFF34F8FBFF36F8F96
:104E7000FEE7502080F31188BFF34F8FBFF36F8F91
:104E8000FEE70024FFF764FB2046BDE8F08188427E
:104E900005D9401A20602846FFF738FCF1E70020CA
:104EA0002060DCE71C0000202DE9FF5F8346DDE980
:104EB0000E87994616468A469000FEF7C7FE050003
:104EC0001CD05C20FEF7C2FE040014D00020256335
:104ED00084F85900CDE90240CDE900874B463246BF
:104EE00051465846FEF776FC2046FEF713FB01209C
:104EF00004B0BDE8F09F2846FFF73EFB4FF0FF30BF
:104F0000F6E7F0B585B0DDE90B640A9DA6B1DCB12A
:104F10005C2700972663022684F85960002604AFB8
:104F2000CDE90246CDE90057FEF754FC2046FEF7D6
:104F3000F1FA049805B0F0BD502080F31188BFF35A
:104F40004F8FBFF36F8FFEE7502080F31188BFF3C0
:104F50004F8FBFF36F8FFEE70548416919B1006BB2
:104F600018B10020704701207047022070470000F0
:104F70001C0000200148C068704700001C00002091
:104F80002DE9F0412E4C0027206B28B1A069401C70
:104F9000A0613846BDE8F081E668761CE66013D172
:104FA000606B006838B1502080F31188BFF34F8FD9
:104FB000BFF36F8FFEE7606BA16B6163A063206A34
:104FC000401C2062FEF78CFDA06ADFF878808642E4
:104FD00009D3606B0068A0B1606BC068C568686881
:104FE000864211D2A0622068C06A00EB800158F8A6
:104FF0002100012800D90127E0690028C9D0012734
:10500000C7E74FF0FF30EDE7281DFFF725FAA86A44
:1050100018B105F11800FFF71FFAE86A2169884204
:1050200000D9206100EB800108EB8100291DFFF70A
:1050300063FAE86A2168C96A8842CAD30127C8E7C7
:105040001C0000208006002070B504004FF0000115
:1050500033D01B4D2868844207D0502080F311883C
:10506000BFF34F8FBFF36F8FFEE7206D38B1401E47
:105070002065E36CE26A9A421FD040B11DE05020E7
:1050800080F31188BFF34F8FBFF36F8FFEE7201DB2
:10509000FFF7E2F9E06CE062C0F13800A061E06A7D
:1050A0002969884200D92861064900EB800001EB9C
:1050B0008000211DFFF720FA0121084670BD000085
:1050C0001C0000208006002070B5C068C46854B180
:1050D00004F118000646FFF7BFF9144D286B50B1D4
:1050E0003146134815E0502080F31188BFF34F8FED
:1050F000BFF36F8FFEE7201DFFF7AEF9E06A296965
:10510000884200D928610B4900EB800001EB800048
:10511000211DFFF7F1F9E06A2968C96A884202D9BE
:105120000120E86170BD002070BD00001C0000205F
:10513000080B0020800600202DE9F0472C4D0024AC
:105140002746286B38B1FFF7E3F9286B401E286328
:10515000286B40B146E0502080F31188BFF34F8F99
:10516000BFF36F8FFEE7A968224E0120D1B3A6F5E9
:10517000916980463068E0B1F068C46804F11800B5
:10518000FFF76AF9201DFFF767F9E06A296988428D
:1051900000D9286100EB800109EB8100211DFFF798
:1051A000ABF9E06A2968C96A8842E3D3C5F81C8074
:1051B000E0E70CB1FEF794FCAC694CB14FEA08068D
:1051C000FFF7DEFE00B1EE61641EF9D10020A86198
:1051D000E86938B10849012738070860BFF34F8FE5
:1051E000BFF36F8FFFF7B4F93846BDE8F0870000D2
:1051F0001C000020080B002004ED00E010B586B074
:10520000FEF7F0F9114C2068B8B10020039004902B
:1052100005AA04A903A8FFF73DF9DDE9032102204F
:105220008DE8070000230AA10B48059AFFF769FEE5
:10523000606010B106B0012010BD502080F31188CD
:10524000BFF34F8FBFF36F8FFEE7000058000020C1
:10525000546D722053766300BD3B00082DE9FF4179
:105260001E46134602000A9D4FF0000016D0144C53
:105270002768002F0FD0CDE900130292062917DA14
:10528000FFF76AFE02284FF000030FD000226946A4
:105290002068FFF723FC04B0BDE8F081502080F3C4
:1052A0001188BFF34F8FBFF36F8FFEE72A46EEE7FB
:1052B0000023324669463846FFF7C0FCEBE70000A2
:1052C00058000020B4540008000000000000000056
:1052D00000000000000000000002000018000000B4
:1052E0000000000000000000A454000800000000BE
:1052F00000000000000000000000000000020000AC
:10530000080000000000000000000000C054000879
:10531000000000000000000000000000000000008D
:105320000002000018000000000000000000000063
:105330000000000000000000010203040607080945
:105340000000000001020304756172745F726563FE
:105350005F415F66756E6300756172745F64726948
:105360007665725F66756E630048414C5F554152C9
:10537000545F527843706C7443616C6C6261636B10
:10538000006372656174655F656D7074795F6369F0
:105390007263756C61725F62756666657200656CDA
:1053A0006F675F737461727400656C6F675F7374AD
:1053B0006F7000656C6F675F7365745F6F75747095
:1053C00075745F656E61626C656400656C6F675FC4
:1053D0007365745F746578745F636F6C6F725F651B
:1053E0006E61626C656400656C6F675F7365745FA6
:1053F000666D7400656C6F675F7365745F66696C7A
:1054000074657200656C6F675F7365745F66696C65
:105410007465725F6C766C00656C6F675F73657442
:105420005F66696C7465725F7461675F6C766C004F
:10543000656C6F675F6765745F66696C7465725FE2
:105440007461675F6C766C00656C6F675F6F757415
:10545000707574006765745F666D745F656E616218
:105460006C656400656C6F675F66696E645F6C761F
:105470006C00656C6F675F66696E645F746167007E
:10548000656C6F675F73747263707900656C6F67CA
:105490005F6370796C6E00656C6F675F6D656D63DF
:1054A000707900005461736B5F756172745F72652F
:1054B000635F410064656661756C745461736B0071
:1054C0005461736B5F6273705F756172745F647255
:1054D0006976657200000000412F0000442F000033
:1054E000452F0000492F0000562F0000572F0000C5
:1054F00033313B32326D000033323B32326D0000CB
:1055000033333B32326D000033343B32326D0000B6
:1055100033353B32326D000033363B32326D0000A2
:105520004055000800000020F8000000B81F0008E7
:1055300038560008F800002028590000C81F00084D
:10554000000000000000000000000000010000005A
:1055500010000000000000000024F4000000000023
:10556000000000000000000000000000000000003B
:10557000000000000000000000000000000000002B
:10558000000000000000000000000000000000001B
:10559000000000000000000000000000000000000B
:1055A00000000000000000000000000000000000FB
:1055B00000000000000000000000000000000000EB
:1055C00000000000000000000000000000000000DB
:1055D00000000000AAAAAAAA000000000000000023
:1055E00000000000000000000000000001000000BA
:1055F00000000000000000000000000000000000AB
:10560000D8540008E0540008EC540008E4540008A2
:10561000DC540008E854000810550008F054000855
:105620000055000818550008F854000808550008EF
:08563000000000000000000072
:040000050800019955
:00000001FF
